{
	"campain.sol": {
		"deployedCampagin": {
			"abi": [
				{
					"anonymous": false,
					"inputs": [
						{
							"indexed": false,
							"internalType": "string",
							"name": "campTitile",
							"type": "string"
						},
						{
							"indexed": false,
							"internalType": "string",
							"name": "Image",
							"type": "string"
						},
						{
							"indexed": false,
							"internalType": "uint256",
							"name": "campReqAmout",
							"type": "uint256"
						},
						{
							"indexed": true,
							"internalType": "address",
							"name": "Owner",
							"type": "address"
						},
						{
							"indexed": true,
							"internalType": "uint256",
							"name": "timestamp",
							"type": "uint256"
						},
						{
							"indexed": true,
							"internalType": "string",
							"name": "category",
							"type": "string"
						},
						{
							"indexed": false,
							"internalType": "address",
							"name": "CampAddress",
							"type": "address"
						}
					],
					"name": "CampaignCreated",
					"type": "event"
				},
				{
					"inputs": [
						{
							"internalType": "string",
							"name": "campTitile",
							"type": "string"
						},
						{
							"internalType": "string",
							"name": "campImage",
							"type": "string"
						},
						{
							"internalType": "string",
							"name": "category",
							"type": "string"
						},
						{
							"internalType": "string",
							"name": "campStory",
							"type": "string"
						},
						{
							"internalType": "uint256",
							"name": "campReqAmout",
							"type": "uint256"
						}
					],
					"name": "createCampagin",
					"outputs": [],
					"stateMutability": "nonpayable",
					"type": "function"
				},
				{
					"inputs": [
						{
							"internalType": "uint256",
							"name": "",
							"type": "uint256"
						}
					],
					"name": "deployed",
					"outputs": [
						{
							"internalType": "address",
							"name": "",
							"type": "address"
						}
					],
					"stateMutability": "view",
					"type": "function"
				}
			],
			"devdoc": {
				"kind": "dev",
				"methods": {},
				"version": 1
			},
			"evm": {
				"assembly": "    /* \"campain.sol\":296:805  contract deployedCampagin{... */\n  mstore(0x40, 0x80)\n  callvalue\n  dup1\n  iszero\n  tag_1\n  jumpi\n  revert(0x00, 0x00)\ntag_1:\n  pop\n  dataSize(sub_0)\n  dup1\n  dataOffset(sub_0)\n  0x00\n  codecopy\n  0x00\n  return\nstop\n\nsub_0: assembly {\n        /* \"campain.sol\":296:805  contract deployedCampagin{... */\n      mstore(0x40, 0x80)\n      callvalue\n      dup1\n      iszero\n      tag_1\n      jumpi\n      revert(0x00, 0x00)\n    tag_1:\n      pop\n      jumpi(tag_2, lt(calldatasize, 0x04))\n      shr(0xe0, calldataload(0x00))\n      dup1\n      0x15b40ec0\n      eq\n      tag_3\n      jumpi\n      dup1\n      0x468f4f89\n      eq\n      tag_4\n      jumpi\n    tag_2:\n      revert(0x00, 0x00)\n        /* \"campain.sol\":327:352  address[] public deployed */\n    tag_3:\n      tag_5\n      0x04\n      dup1\n      calldatasize\n      sub\n      dup2\n      add\n      swap1\n      tag_6\n      swap2\n      swap1\n      tag_7\n      jump\t// in\n    tag_6:\n      tag_8\n      jump\t// in\n    tag_5:\n      mload(0x40)\n      tag_9\n      swap2\n      swap1\n      tag_10\n      jump\t// in\n    tag_9:\n      mload(0x40)\n      dup1\n      swap2\n      sub\n      swap1\n      return\n        /* \"campain.sol\":358:803  function createCampagin(string memory campTitile, string memory campImage,... */\n    tag_4:\n      tag_11\n      0x04\n      dup1\n      calldatasize\n      sub\n      dup2\n      add\n      swap1\n      tag_12\n      swap2\n      swap1\n      tag_13\n      jump\t// in\n    tag_12:\n      tag_14\n      jump\t// in\n    tag_11:\n      stop\n        /* \"campain.sol\":327:352  address[] public deployed */\n    tag_8:\n      0x00\n      dup2\n      dup2\n      sload\n      dup2\n      lt\n      tag_15\n      jumpi\n      0x00\n      dup1\n      revert\n    tag_15:\n      swap1\n      0x00\n      mstore\n      keccak256(0x00, 0x20)\n      add\n      0x00\n      swap2\n      pop\n      sload\n      swap1\n      0x0100\n      exp\n      swap1\n      div\n      0xffffffffffffffffffffffffffffffffffffffff\n      and\n      dup2\n      jump\t// out\n        /* \"campain.sol\":358:803  function createCampagin(string memory campTitile, string memory campImage,... */\n    tag_14:\n        /* \"campain.sol\":520:540  Campaign newCampaign */\n      0x00\n        /* \"campain.sol\":556:566  campTitile */\n      dup6\n        /* \"campain.sol\":576:585  campImage */\n      dup6\n        /* \"campain.sol\":586:595  campStory */\n      dup5\n        /* \"campain.sol\":596:608  campReqAmout */\n      dup5\n        /* \"campain.sol\":543:609  new Campaign(campTitile,... */\n      mload(0x40)\n      tag_18\n      swap1\n      tag_19\n      jump\t// in\n    tag_18:\n      tag_20\n      swap5\n      swap4\n      swap3\n      swap2\n      swap1\n      tag_21\n      jump\t// in\n    tag_20:\n      mload(0x40)\n      dup1\n      swap2\n      sub\n      swap1\n      0x00\n      create\n      dup1\n      iszero\n      dup1\n      iszero\n      tag_22\n      jumpi\n      returndatacopy(0x00, 0x00, returndatasize)\n      revert(0x00, returndatasize)\n    tag_22:\n      pop\n        /* \"campain.sol\":520:609  Campaign newCampaign = new Campaign(campTitile,... */\n      swap1\n      pop\n        /* \"campain.sol\":619:627  deployed */\n      0x00\n        /* \"campain.sol\":641:652  newCampaign */\n      dup2\n        /* \"campain.sol\":619:654  deployed.push(address(newCampaign)) */\n      swap1\n      dup1\n      0x01\n      dup2\n      sload\n      add\n      dup1\n      dup3\n      sstore\n      dup1\n      swap2\n      pop\n      pop\n      0x01\n      swap1\n      sub\n      swap1\n      0x00\n      mstore\n      keccak256(0x00, 0x20)\n      add\n      0x00\n      swap1\n      swap2\n      swap1\n      swap2\n      swap1\n      swap2\n      0x0100\n      exp\n      dup2\n      sload\n      dup2\n      0xffffffffffffffffffffffffffffffffffffffff\n      mul\n      not\n      and\n      swap1\n      dup4\n      0xffffffffffffffffffffffffffffffffffffffff\n      and\n      mul\n      or\n      swap1\n      sstore\n      pop\n        /* \"campain.sol\":765:773  category */\n      dup4\n        /* \"campain.sol\":670:795  CampaignCreated(campTitile,campImage,... */\n      mload(0x40)\n      tag_24\n      swap2\n      swap1\n      tag_25\n      jump\t// in\n    tag_24:\n      mload(0x40)\n      dup1\n      swap2\n      sub\n      swap1\n      keccak256\n        /* \"campain.sol\":740:755  block.timestamp */\n      timestamp\n        /* \"campain.sol\":729:739  msg.sender */\n      caller\n        /* \"campain.sol\":670:795  CampaignCreated(campTitile,campImage,... */\n      0xffffffffffffffffffffffffffffffffffffffff\n      and\n      0x2a15e8182e5afe1f8145c338707fde0fd0e872200e52a393f86c1fba47db6d37\n        /* \"campain.sol\":686:696  campTitile */\n      dup10\n        /* \"campain.sol\":697:706  campImage */\n      dup10\n        /* \"campain.sol\":716:728  campReqAmout */\n      dup8\n        /* \"campain.sol\":782:793  newCampaign */\n      dup8\n        /* \"campain.sol\":670:795  CampaignCreated(campTitile,campImage,... */\n      mload(0x40)\n      tag_26\n      swap5\n      swap4\n      swap3\n      swap2\n      swap1\n      tag_27\n      jump\t// in\n    tag_26:\n      mload(0x40)\n      dup1\n      swap2\n      sub\n      swap1\n      log4\n        /* \"campain.sol\":510:803  {... */\n      pop\n        /* \"campain.sol\":358:803  function createCampagin(string memory campTitile, string memory campImage,... */\n      pop\n      pop\n      pop\n      pop\n      pop\n      jump\t// out\n    tag_19:\n      dataSize(sub_0)\n      dup1\n      dataOffset(sub_0)\n      dup4\n      codecopy\n      add\n      swap1\n      jump\t// out\n        /* \"#utility.yul\":7:82   */\n    tag_28:\n        /* \"#utility.yul\":40:46   */\n      0x00\n        /* \"#utility.yul\":73:75   */\n      0x40\n        /* \"#utility.yul\":67:76   */\n      mload\n        /* \"#utility.yul\":57:76   */\n      swap1\n      pop\n        /* \"#utility.yul\":7:82   */\n      swap1\n      jump\t// out\n        /* \"#utility.yul\":88:205   */\n    tag_29:\n        /* \"#utility.yul\":197:198   */\n      0x00\n        /* \"#utility.yul\":194:195   */\n      0x00\n        /* \"#utility.yul\":187:199   */\n      revert\n        /* \"#utility.yul\":211:328   */\n    tag_30:\n        /* \"#utility.yul\":320:321   */\n      0x00\n        /* \"#utility.yul\":317:318   */\n      0x00\n        /* \"#utility.yul\":310:322   */\n      revert\n        /* \"#utility.yul\":334:411   */\n    tag_31:\n        /* \"#utility.yul\":371:378   */\n      0x00\n        /* \"#utility.yul\":400:405   */\n      dup2\n        /* \"#utility.yul\":389:405   */\n      swap1\n      pop\n        /* \"#utility.yul\":334:411   */\n      swap2\n      swap1\n      pop\n      jump\t// out\n        /* \"#utility.yul\":417:539   */\n    tag_32:\n        /* \"#utility.yul\":490:514   */\n      tag_60\n        /* \"#utility.yul\":508:513   */\n      dup2\n        /* \"#utility.yul\":490:514   */\n      tag_31\n      jump\t// in\n    tag_60:\n        /* \"#utility.yul\":483:488   */\n      dup2\n        /* \"#utility.yul\":480:515   */\n      eq\n        /* \"#utility.yul\":470:533   */\n      tag_61\n      jumpi\n        /* \"#utility.yul\":529:530   */\n      0x00\n        /* \"#utility.yul\":526:527   */\n      0x00\n        /* \"#utility.yul\":519:531   */\n      revert\n        /* \"#utility.yul\":470:533   */\n    tag_61:\n        /* \"#utility.yul\":417:539   */\n      pop\n      jump\t// out\n        /* \"#utility.yul\":545:684   */\n    tag_33:\n        /* \"#utility.yul\":591:596   */\n      0x00\n        /* \"#utility.yul\":629:635   */\n      dup2\n        /* \"#utility.yul\":616:636   */\n      calldataload\n        /* \"#utility.yul\":607:636   */\n      swap1\n      pop\n        /* \"#utility.yul\":645:678   */\n      tag_63\n        /* \"#utility.yul\":672:677   */\n      dup2\n        /* \"#utility.yul\":645:678   */\n      tag_32\n      jump\t// in\n    tag_63:\n        /* \"#utility.yul\":545:684   */\n      swap3\n      swap2\n      pop\n      pop\n      jump\t// out\n        /* \"#utility.yul\":690:1019   */\n    tag_7:\n        /* \"#utility.yul\":749:755   */\n      0x00\n        /* \"#utility.yul\":798:800   */\n      0x20\n        /* \"#utility.yul\":786:795   */\n      dup3\n        /* \"#utility.yul\":777:784   */\n      dup5\n        /* \"#utility.yul\":773:796   */\n      sub\n        /* \"#utility.yul\":769:801   */\n      slt\n        /* \"#utility.yul\":766:885   */\n      iszero\n      tag_65\n      jumpi\n        /* \"#utility.yul\":804:883   */\n      tag_66\n      tag_29\n      jump\t// in\n    tag_66:\n        /* \"#utility.yul\":766:885   */\n    tag_65:\n        /* \"#utility.yul\":924:925   */\n      0x00\n        /* \"#utility.yul\":949:1002   */\n      tag_67\n        /* \"#utility.yul\":994:1001   */\n      dup5\n        /* \"#utility.yul\":985:991   */\n      dup3\n        /* \"#utility.yul\":974:983   */\n      dup6\n        /* \"#utility.yul\":970:992   */\n      add\n        /* \"#utility.yul\":949:1002   */\n      tag_33\n      jump\t// in\n    tag_67:\n        /* \"#utility.yul\":939:1002   */\n      swap2\n      pop\n        /* \"#utility.yul\":895:1012   */\n      pop\n        /* \"#utility.yul\":690:1019   */\n      swap3\n      swap2\n      pop\n      pop\n      jump\t// out\n        /* \"#utility.yul\":1025:1151   */\n    tag_34:\n        /* \"#utility.yul\":1062:1069   */\n      0x00\n        /* \"#utility.yul\":1102:1144   */\n      0xffffffffffffffffffffffffffffffffffffffff\n        /* \"#utility.yul\":1095:1100   */\n      dup3\n        /* \"#utility.yul\":1091:1145   */\n      and\n        /* \"#utility.yul\":1080:1145   */\n      swap1\n      pop\n        /* \"#utility.yul\":1025:1151   */\n      swap2\n      swap1\n      pop\n      jump\t// out\n        /* \"#utility.yul\":1157:1253   */\n    tag_35:\n        /* \"#utility.yul\":1194:1201   */\n      0x00\n        /* \"#utility.yul\":1223:1247   */\n      tag_70\n        /* \"#utility.yul\":1241:1246   */\n      dup3\n        /* \"#utility.yul\":1223:1247   */\n      tag_34\n      jump\t// in\n    tag_70:\n        /* \"#utility.yul\":1212:1247   */\n      swap1\n      pop\n        /* \"#utility.yul\":1157:1253   */\n      swap2\n      swap1\n      pop\n      jump\t// out\n        /* \"#utility.yul\":1259:1377   */\n    tag_36:\n        /* \"#utility.yul\":1346:1370   */\n      tag_72\n        /* \"#utility.yul\":1364:1369   */\n      dup2\n        /* \"#utility.yul\":1346:1370   */\n      tag_35\n      jump\t// in\n    tag_72:\n        /* \"#utility.yul\":1341:1344   */\n      dup3\n        /* \"#utility.yul\":1334:1371   */\n      mstore\n        /* \"#utility.yul\":1259:1377   */\n      pop\n      pop\n      jump\t// out\n        /* \"#utility.yul\":1383:1605   */\n    tag_10:\n        /* \"#utility.yul\":1476:1480   */\n      0x00\n        /* \"#utility.yul\":1514:1516   */\n      0x20\n        /* \"#utility.yul\":1503:1512   */\n      dup3\n        /* \"#utility.yul\":1499:1517   */\n      add\n        /* \"#utility.yul\":1491:1517   */\n      swap1\n      pop\n        /* \"#utility.yul\":1527:1598   */\n      tag_74\n        /* \"#utility.yul\":1595:1596   */\n      0x00\n        /* \"#utility.yul\":1584:1593   */\n      dup4\n        /* \"#utility.yul\":1580:1597   */\n      add\n        /* \"#utility.yul\":1571:1577   */\n      dup5\n        /* \"#utility.yul\":1527:1598   */\n      tag_36\n      jump\t// in\n    tag_74:\n        /* \"#utility.yul\":1383:1605   */\n      swap3\n      swap2\n      pop\n      pop\n      jump\t// out\n        /* \"#utility.yul\":1611:1728   */\n    tag_37:\n        /* \"#utility.yul\":1720:1721   */\n      0x00\n        /* \"#utility.yul\":1717:1718   */\n      0x00\n        /* \"#utility.yul\":1710:1722   */\n      revert\n        /* \"#utility.yul\":1734:1851   */\n    tag_38:\n        /* \"#utility.yul\":1843:1844   */\n      0x00\n        /* \"#utility.yul\":1840:1841   */\n      0x00\n        /* \"#utility.yul\":1833:1845   */\n      revert\n        /* \"#utility.yul\":1857:1959   */\n    tag_39:\n        /* \"#utility.yul\":1898:1904   */\n      0x00\n        /* \"#utility.yul\":1949:1951   */\n      0x1f\n        /* \"#utility.yul\":1945:1952   */\n      not\n        /* \"#utility.yul\":1940:1942   */\n      0x1f\n        /* \"#utility.yul\":1933:1938   */\n      dup4\n        /* \"#utility.yul\":1929:1943   */\n      add\n        /* \"#utility.yul\":1925:1953   */\n      and\n        /* \"#utility.yul\":1915:1953   */\n      swap1\n      pop\n        /* \"#utility.yul\":1857:1959   */\n      swap2\n      swap1\n      pop\n      jump\t// out\n        /* \"#utility.yul\":1965:2145   */\n    tag_40:\n        /* \"#utility.yul\":2013:2090   */\n      0x4e487b7100000000000000000000000000000000000000000000000000000000\n        /* \"#utility.yul\":2010:2011   */\n      0x00\n        /* \"#utility.yul\":2003:2091   */\n      mstore\n        /* \"#utility.yul\":2110:2114   */\n      0x41\n        /* \"#utility.yul\":2107:2108   */\n      0x04\n        /* \"#utility.yul\":2100:2115   */\n      mstore\n        /* \"#utility.yul\":2134:2138   */\n      0x24\n        /* \"#utility.yul\":2131:2132   */\n      0x00\n        /* \"#utility.yul\":2124:2139   */\n      revert\n        /* \"#utility.yul\":2151:2432   */\n    tag_41:\n        /* \"#utility.yul\":2234:2261   */\n      tag_80\n        /* \"#utility.yul\":2256:2260   */\n      dup3\n        /* \"#utility.yul\":2234:2261   */\n      tag_39\n      jump\t// in\n    tag_80:\n        /* \"#utility.yul\":2226:2232   */\n      dup2\n        /* \"#utility.yul\":2222:2262   */\n      add\n        /* \"#utility.yul\":2364:2370   */\n      dup2\n        /* \"#utility.yul\":2352:2362   */\n      dup2\n        /* \"#utility.yul\":2349:2371   */\n      lt\n        /* \"#utility.yul\":2328:2346   */\n      0xffffffffffffffff\n        /* \"#utility.yul\":2316:2326   */\n      dup3\n        /* \"#utility.yul\":2313:2347   */\n      gt\n        /* \"#utility.yul\":2310:2372   */\n      or\n        /* \"#utility.yul\":2307:2395   */\n      iszero\n      tag_81\n      jumpi\n        /* \"#utility.yul\":2375:2393   */\n      tag_82\n      tag_40\n      jump\t// in\n    tag_82:\n        /* \"#utility.yul\":2307:2395   */\n    tag_81:\n        /* \"#utility.yul\":2415:2425   */\n      dup1\n        /* \"#utility.yul\":2411:2413   */\n      0x40\n        /* \"#utility.yul\":2404:2426   */\n      mstore\n        /* \"#utility.yul\":2194:2432   */\n      pop\n        /* \"#utility.yul\":2151:2432   */\n      pop\n      pop\n      jump\t// out\n        /* \"#utility.yul\":2438:2567   */\n    tag_42:\n        /* \"#utility.yul\":2472:2478   */\n      0x00\n        /* \"#utility.yul\":2499:2519   */\n      tag_84\n      tag_28\n      jump\t// in\n    tag_84:\n        /* \"#utility.yul\":2489:2519   */\n      swap1\n      pop\n        /* \"#utility.yul\":2528:2561   */\n      tag_85\n        /* \"#utility.yul\":2556:2560   */\n      dup3\n        /* \"#utility.yul\":2548:2554   */\n      dup3\n        /* \"#utility.yul\":2528:2561   */\n      tag_41\n      jump\t// in\n    tag_85:\n        /* \"#utility.yul\":2438:2567   */\n      swap2\n      swap1\n      pop\n      jump\t// out\n        /* \"#utility.yul\":2573:2881   */\n    tag_43:\n        /* \"#utility.yul\":2635:2639   */\n      0x00\n        /* \"#utility.yul\":2725:2743   */\n      0xffffffffffffffff\n        /* \"#utility.yul\":2717:2723   */\n      dup3\n        /* \"#utility.yul\":2714:2744   */\n      gt\n        /* \"#utility.yul\":2711:2767   */\n      iszero\n      tag_87\n      jumpi\n        /* \"#utility.yul\":2747:2765   */\n      tag_88\n      tag_40\n      jump\t// in\n    tag_88:\n        /* \"#utility.yul\":2711:2767   */\n    tag_87:\n        /* \"#utility.yul\":2785:2814   */\n      tag_89\n        /* \"#utility.yul\":2807:2813   */\n      dup3\n        /* \"#utility.yul\":2785:2814   */\n      tag_39\n      jump\t// in\n    tag_89:\n        /* \"#utility.yul\":2777:2814   */\n      swap1\n      pop\n        /* \"#utility.yul\":2869:2873   */\n      0x20\n        /* \"#utility.yul\":2863:2867   */\n      dup2\n        /* \"#utility.yul\":2859:2874   */\n      add\n        /* \"#utility.yul\":2851:2874   */\n      swap1\n      pop\n        /* \"#utility.yul\":2573:2881   */\n      swap2\n      swap1\n      pop\n      jump\t// out\n        /* \"#utility.yul\":2887:3035   */\n    tag_44:\n        /* \"#utility.yul\":2985:2991   */\n      dup3\n        /* \"#utility.yul\":2980:2983   */\n      dup2\n        /* \"#utility.yul\":2975:2978   */\n      dup4\n        /* \"#utility.yul\":2962:2992   */\n      calldatacopy\n        /* \"#utility.yul\":3026:3027   */\n      0x00\n        /* \"#utility.yul\":3017:3023   */\n      dup4\n        /* \"#utility.yul\":3012:3015   */\n      dup4\n        /* \"#utility.yul\":3008:3024   */\n      add\n        /* \"#utility.yul\":3001:3028   */\n      mstore\n        /* \"#utility.yul\":2887:3035   */\n      pop\n      pop\n      pop\n      jump\t// out\n        /* \"#utility.yul\":3041:3466   */\n    tag_45:\n        /* \"#utility.yul\":3119:3124   */\n      0x00\n        /* \"#utility.yul\":3144:3210   */\n      tag_92\n        /* \"#utility.yul\":3160:3209   */\n      tag_93\n        /* \"#utility.yul\":3202:3208   */\n      dup5\n        /* \"#utility.yul\":3160:3209   */\n      tag_43\n      jump\t// in\n    tag_93:\n        /* \"#utility.yul\":3144:3210   */\n      tag_42\n      jump\t// in\n    tag_92:\n        /* \"#utility.yul\":3135:3210   */\n      swap1\n      pop\n        /* \"#utility.yul\":3233:3239   */\n      dup3\n        /* \"#utility.yul\":3226:3231   */\n      dup2\n        /* \"#utility.yul\":3219:3240   */\n      mstore\n        /* \"#utility.yul\":3271:3275   */\n      0x20\n        /* \"#utility.yul\":3264:3269   */\n      dup2\n        /* \"#utility.yul\":3260:3276   */\n      add\n        /* \"#utility.yul\":3309:3312   */\n      dup5\n        /* \"#utility.yul\":3300:3306   */\n      dup5\n        /* \"#utility.yul\":3295:3298   */\n      dup5\n        /* \"#utility.yul\":3291:3307   */\n      add\n        /* \"#utility.yul\":3288:3313   */\n      gt\n        /* \"#utility.yul\":3285:3397   */\n      iszero\n      tag_94\n      jumpi\n        /* \"#utility.yul\":3316:3395   */\n      tag_95\n      tag_38\n      jump\t// in\n    tag_95:\n        /* \"#utility.yul\":3285:3397   */\n    tag_94:\n        /* \"#utility.yul\":3406:3460   */\n      tag_96\n        /* \"#utility.yul\":3453:3459   */\n      dup5\n        /* \"#utility.yul\":3448:3451   */\n      dup3\n        /* \"#utility.yul\":3443:3446   */\n      dup6\n        /* \"#utility.yul\":3406:3460   */\n      tag_44\n      jump\t// in\n    tag_96:\n        /* \"#utility.yul\":3125:3466   */\n      pop\n        /* \"#utility.yul\":3041:3466   */\n      swap4\n      swap3\n      pop\n      pop\n      pop\n      jump\t// out\n        /* \"#utility.yul\":3486:3826   */\n    tag_46:\n        /* \"#utility.yul\":3542:3547   */\n      0x00\n        /* \"#utility.yul\":3591:3594   */\n      dup3\n        /* \"#utility.yul\":3584:3588   */\n      0x1f\n        /* \"#utility.yul\":3576:3582   */\n      dup4\n        /* \"#utility.yul\":3572:3589   */\n      add\n        /* \"#utility.yul\":3568:3595   */\n      slt\n        /* \"#utility.yul\":3558:3680   */\n      tag_98\n      jumpi\n        /* \"#utility.yul\":3599:3678   */\n      tag_99\n      tag_37\n      jump\t// in\n    tag_99:\n        /* \"#utility.yul\":3558:3680   */\n    tag_98:\n        /* \"#utility.yul\":3716:3722   */\n      dup2\n        /* \"#utility.yul\":3703:3723   */\n      calldataload\n        /* \"#utility.yul\":3741:3820   */\n      tag_100\n        /* \"#utility.yul\":3816:3819   */\n      dup5\n        /* \"#utility.yul\":3808:3814   */\n      dup3\n        /* \"#utility.yul\":3801:3805   */\n      0x20\n        /* \"#utility.yul\":3793:3799   */\n      dup7\n        /* \"#utility.yul\":3789:3806   */\n      add\n        /* \"#utility.yul\":3741:3820   */\n      tag_45\n      jump\t// in\n    tag_100:\n        /* \"#utility.yul\":3732:3820   */\n      swap2\n      pop\n        /* \"#utility.yul\":3548:3826   */\n      pop\n        /* \"#utility.yul\":3486:3826   */\n      swap3\n      swap2\n      pop\n      pop\n      jump\t// out\n        /* \"#utility.yul\":3832:5463   */\n    tag_13:\n        /* \"#utility.yul\":3967:3973   */\n      0x00\n        /* \"#utility.yul\":3975:3981   */\n      0x00\n        /* \"#utility.yul\":3983:3989   */\n      0x00\n        /* \"#utility.yul\":3991:3997   */\n      0x00\n        /* \"#utility.yul\":3999:4005   */\n      0x00\n        /* \"#utility.yul\":4048:4051   */\n      0xa0\n        /* \"#utility.yul\":4036:4045   */\n      dup7\n        /* \"#utility.yul\":4027:4034   */\n      dup9\n        /* \"#utility.yul\":4023:4046   */\n      sub\n        /* \"#utility.yul\":4019:4052   */\n      slt\n        /* \"#utility.yul\":4016:4136   */\n      iszero\n      tag_102\n      jumpi\n        /* \"#utility.yul\":4055:4134   */\n      tag_103\n      tag_29\n      jump\t// in\n    tag_103:\n        /* \"#utility.yul\":4016:4136   */\n    tag_102:\n        /* \"#utility.yul\":4203:4204   */\n      0x00\n        /* \"#utility.yul\":4192:4201   */\n      dup7\n        /* \"#utility.yul\":4188:4205   */\n      add\n        /* \"#utility.yul\":4175:4206   */\n      calldataload\n        /* \"#utility.yul\":4233:4251   */\n      0xffffffffffffffff\n        /* \"#utility.yul\":4225:4231   */\n      dup2\n        /* \"#utility.yul\":4222:4252   */\n      gt\n        /* \"#utility.yul\":4219:4336   */\n      iszero\n      tag_104\n      jumpi\n        /* \"#utility.yul\":4255:4334   */\n      tag_105\n      tag_30\n      jump\t// in\n    tag_105:\n        /* \"#utility.yul\":4219:4336   */\n    tag_104:\n        /* \"#utility.yul\":4360:4423   */\n      tag_106\n        /* \"#utility.yul\":4415:4422   */\n      dup9\n        /* \"#utility.yul\":4406:4412   */\n      dup3\n        /* \"#utility.yul\":4395:4404   */\n      dup10\n        /* \"#utility.yul\":4391:4413   */\n      add\n        /* \"#utility.yul\":4360:4423   */\n      tag_46\n      jump\t// in\n    tag_106:\n        /* \"#utility.yul\":4350:4423   */\n      swap6\n      pop\n        /* \"#utility.yul\":4146:4433   */\n      pop\n        /* \"#utility.yul\":4500:4502   */\n      0x20\n        /* \"#utility.yul\":4489:4498   */\n      dup7\n        /* \"#utility.yul\":4485:4503   */\n      add\n        /* \"#utility.yul\":4472:4504   */\n      calldataload\n        /* \"#utility.yul\":4531:4549   */\n      0xffffffffffffffff\n        /* \"#utility.yul\":4523:4529   */\n      dup2\n        /* \"#utility.yul\":4520:4550   */\n      gt\n        /* \"#utility.yul\":4517:4634   */\n      iszero\n      tag_107\n      jumpi\n        /* \"#utility.yul\":4553:4632   */\n      tag_108\n      tag_30\n      jump\t// in\n    tag_108:\n        /* \"#utility.yul\":4517:4634   */\n    tag_107:\n        /* \"#utility.yul\":4658:4721   */\n      tag_109\n        /* \"#utility.yul\":4713:4720   */\n      dup9\n        /* \"#utility.yul\":4704:4710   */\n      dup3\n        /* \"#utility.yul\":4693:4702   */\n      dup10\n        /* \"#utility.yul\":4689:4711   */\n      add\n        /* \"#utility.yul\":4658:4721   */\n      tag_46\n      jump\t// in\n    tag_109:\n        /* \"#utility.yul\":4648:4721   */\n      swap5\n      pop\n        /* \"#utility.yul\":4443:4731   */\n      pop\n        /* \"#utility.yul\":4798:4800   */\n      0x40\n        /* \"#utility.yul\":4787:4796   */\n      dup7\n        /* \"#utility.yul\":4783:4801   */\n      add\n        /* \"#utility.yul\":4770:4802   */\n      calldataload\n        /* \"#utility.yul\":4829:4847   */\n      0xffffffffffffffff\n        /* \"#utility.yul\":4821:4827   */\n      dup2\n        /* \"#utility.yul\":4818:4848   */\n      gt\n        /* \"#utility.yul\":4815:4932   */\n      iszero\n      tag_110\n      jumpi\n        /* \"#utility.yul\":4851:4930   */\n      tag_111\n      tag_30\n      jump\t// in\n    tag_111:\n        /* \"#utility.yul\":4815:4932   */\n    tag_110:\n        /* \"#utility.yul\":4956:5019   */\n      tag_112\n        /* \"#utility.yul\":5011:5018   */\n      dup9\n        /* \"#utility.yul\":5002:5008   */\n      dup3\n        /* \"#utility.yul\":4991:5000   */\n      dup10\n        /* \"#utility.yul\":4987:5009   */\n      add\n        /* \"#utility.yul\":4956:5019   */\n      tag_46\n      jump\t// in\n    tag_112:\n        /* \"#utility.yul\":4946:5019   */\n      swap4\n      pop\n        /* \"#utility.yul\":4741:5029   */\n      pop\n        /* \"#utility.yul\":5096:5098   */\n      0x60\n        /* \"#utility.yul\":5085:5094   */\n      dup7\n        /* \"#utility.yul\":5081:5099   */\n      add\n        /* \"#utility.yul\":5068:5100   */\n      calldataload\n        /* \"#utility.yul\":5127:5145   */\n      0xffffffffffffffff\n        /* \"#utility.yul\":5119:5125   */\n      dup2\n        /* \"#utility.yul\":5116:5146   */\n      gt\n        /* \"#utility.yul\":5113:5230   */\n      iszero\n      tag_113\n      jumpi\n        /* \"#utility.yul\":5149:5228   */\n      tag_114\n      tag_30\n      jump\t// in\n    tag_114:\n        /* \"#utility.yul\":5113:5230   */\n    tag_113:\n        /* \"#utility.yul\":5254:5317   */\n      tag_115\n        /* \"#utility.yul\":5309:5316   */\n      dup9\n        /* \"#utility.yul\":5300:5306   */\n      dup3\n        /* \"#utility.yul\":5289:5298   */\n      dup10\n        /* \"#utility.yul\":5285:5307   */\n      add\n        /* \"#utility.yul\":5254:5317   */\n      tag_46\n      jump\t// in\n    tag_115:\n        /* \"#utility.yul\":5244:5317   */\n      swap3\n      pop\n        /* \"#utility.yul\":5039:5327   */\n      pop\n        /* \"#utility.yul\":5366:5369   */\n      0x80\n        /* \"#utility.yul\":5393:5446   */\n      tag_116\n        /* \"#utility.yul\":5438:5445   */\n      dup9\n        /* \"#utility.yul\":5429:5435   */\n      dup3\n        /* \"#utility.yul\":5418:5427   */\n      dup10\n        /* \"#utility.yul\":5414:5436   */\n      add\n        /* \"#utility.yul\":5393:5446   */\n      tag_33\n      jump\t// in\n    tag_116:\n        /* \"#utility.yul\":5383:5446   */\n      swap2\n      pop\n        /* \"#utility.yul\":5337:5456   */\n      pop\n        /* \"#utility.yul\":3832:5463   */\n      swap3\n      swap6\n      pop\n      swap3\n      swap6\n      swap1\n      swap4\n      pop\n      jump\t// out\n        /* \"#utility.yul\":5469:5568   */\n    tag_47:\n        /* \"#utility.yul\":5521:5527   */\n      0x00\n        /* \"#utility.yul\":5555:5560   */\n      dup2\n        /* \"#utility.yul\":5549:5561   */\n      mload\n        /* \"#utility.yul\":5539:5561   */\n      swap1\n      pop\n        /* \"#utility.yul\":5469:5568   */\n      swap2\n      swap1\n      pop\n      jump\t// out\n        /* \"#utility.yul\":5574:5743   */\n    tag_48:\n        /* \"#utility.yul\":5658:5669   */\n      0x00\n        /* \"#utility.yul\":5692:5698   */\n      dup3\n        /* \"#utility.yul\":5687:5690   */\n      dup3\n        /* \"#utility.yul\":5680:5699   */\n      mstore\n        /* \"#utility.yul\":5732:5736   */\n      0x20\n        /* \"#utility.yul\":5727:5730   */\n      dup3\n        /* \"#utility.yul\":5723:5737   */\n      add\n        /* \"#utility.yul\":5708:5737   */\n      swap1\n      pop\n        /* \"#utility.yul\":5574:5743   */\n      swap3\n      swap2\n      pop\n      pop\n      jump\t// out\n        /* \"#utility.yul\":5749:5888   */\n    tag_49:\n        /* \"#utility.yul\":5838:5844   */\n      dup3\n        /* \"#utility.yul\":5833:5836   */\n      dup2\n        /* \"#utility.yul\":5828:5831   */\n      dup4\n        /* \"#utility.yul\":5822:5845   */\n      mcopy\n        /* \"#utility.yul\":5879:5880   */\n      0x00\n        /* \"#utility.yul\":5870:5876   */\n      dup4\n        /* \"#utility.yul\":5865:5868   */\n      dup4\n        /* \"#utility.yul\":5861:5877   */\n      add\n        /* \"#utility.yul\":5854:5881   */\n      mstore\n        /* \"#utility.yul\":5749:5888   */\n      pop\n      pop\n      pop\n      jump\t// out\n        /* \"#utility.yul\":5894:6271   */\n    tag_50:\n        /* \"#utility.yul\":5982:5985   */\n      0x00\n        /* \"#utility.yul\":6010:6049   */\n      tag_121\n        /* \"#utility.yul\":6043:6048   */\n      dup3\n        /* \"#utility.yul\":6010:6049   */\n      tag_47\n      jump\t// in\n    tag_121:\n        /* \"#utility.yul\":6065:6136   */\n      tag_122\n        /* \"#utility.yul\":6129:6135   */\n      dup2\n        /* \"#utility.yul\":6124:6127   */\n      dup6\n        /* \"#utility.yul\":6065:6136   */\n      tag_48\n      jump\t// in\n    tag_122:\n        /* \"#utility.yul\":6058:6136   */\n      swap4\n      pop\n        /* \"#utility.yul\":6145:6210   */\n      tag_123\n        /* \"#utility.yul\":6203:6209   */\n      dup2\n        /* \"#utility.yul\":6198:6201   */\n      dup6\n        /* \"#utility.yul\":6191:6195   */\n      0x20\n        /* \"#utility.yul\":6184:6189   */\n      dup7\n        /* \"#utility.yul\":6180:6196   */\n      add\n        /* \"#utility.yul\":6145:6210   */\n      tag_49\n      jump\t// in\n    tag_123:\n        /* \"#utility.yul\":6235:6264   */\n      tag_124\n        /* \"#utility.yul\":6257:6263   */\n      dup2\n        /* \"#utility.yul\":6235:6264   */\n      tag_39\n      jump\t// in\n    tag_124:\n        /* \"#utility.yul\":6230:6233   */\n      dup5\n        /* \"#utility.yul\":6226:6265   */\n      add\n        /* \"#utility.yul\":6219:6265   */\n      swap2\n      pop\n        /* \"#utility.yul\":5986:6271   */\n      pop\n        /* \"#utility.yul\":5894:6271   */\n      swap3\n      swap2\n      pop\n      pop\n      jump\t// out\n        /* \"#utility.yul\":6277:6395   */\n    tag_51:\n        /* \"#utility.yul\":6364:6388   */\n      tag_126\n        /* \"#utility.yul\":6382:6387   */\n      dup2\n        /* \"#utility.yul\":6364:6388   */\n      tag_31\n      jump\t// in\n    tag_126:\n        /* \"#utility.yul\":6359:6362   */\n      dup3\n        /* \"#utility.yul\":6352:6389   */\n      mstore\n        /* \"#utility.yul\":6277:6395   */\n      pop\n      pop\n      jump\t// out\n        /* \"#utility.yul\":6401:7227   */\n    tag_21:\n        /* \"#utility.yul\":6638:6642   */\n      0x00\n        /* \"#utility.yul\":6676:6679   */\n      0x80\n        /* \"#utility.yul\":6665:6674   */\n      dup3\n        /* \"#utility.yul\":6661:6680   */\n      add\n        /* \"#utility.yul\":6653:6680   */\n      swap1\n      pop\n        /* \"#utility.yul\":6726:6735   */\n      dup2\n        /* \"#utility.yul\":6720:6724   */\n      dup2\n        /* \"#utility.yul\":6716:6736   */\n      sub\n        /* \"#utility.yul\":6712:6713   */\n      0x00\n        /* \"#utility.yul\":6701:6710   */\n      dup4\n        /* \"#utility.yul\":6697:6714   */\n      add\n        /* \"#utility.yul\":6690:6737   */\n      mstore\n        /* \"#utility.yul\":6754:6832   */\n      tag_128\n        /* \"#utility.yul\":6827:6831   */\n      dup2\n        /* \"#utility.yul\":6818:6824   */\n      dup8\n        /* \"#utility.yul\":6754:6832   */\n      tag_50\n      jump\t// in\n    tag_128:\n        /* \"#utility.yul\":6746:6832   */\n      swap1\n      pop\n        /* \"#utility.yul\":6879:6888   */\n      dup2\n        /* \"#utility.yul\":6873:6877   */\n      dup2\n        /* \"#utility.yul\":6869:6889   */\n      sub\n        /* \"#utility.yul\":6864:6866   */\n      0x20\n        /* \"#utility.yul\":6853:6862   */\n      dup4\n        /* \"#utility.yul\":6849:6867   */\n      add\n        /* \"#utility.yul\":6842:6890   */\n      mstore\n        /* \"#utility.yul\":6907:6985   */\n      tag_129\n        /* \"#utility.yul\":6980:6984   */\n      dup2\n        /* \"#utility.yul\":6971:6977   */\n      dup7\n        /* \"#utility.yul\":6907:6985   */\n      tag_50\n      jump\t// in\n    tag_129:\n        /* \"#utility.yul\":6899:6985   */\n      swap1\n      pop\n        /* \"#utility.yul\":7032:7041   */\n      dup2\n        /* \"#utility.yul\":7026:7030   */\n      dup2\n        /* \"#utility.yul\":7022:7042   */\n      sub\n        /* \"#utility.yul\":7017:7019   */\n      0x40\n        /* \"#utility.yul\":7006:7015   */\n      dup4\n        /* \"#utility.yul\":7002:7020   */\n      add\n        /* \"#utility.yul\":6995:7043   */\n      mstore\n        /* \"#utility.yul\":7060:7138   */\n      tag_130\n        /* \"#utility.yul\":7133:7137   */\n      dup2\n        /* \"#utility.yul\":7124:7130   */\n      dup6\n        /* \"#utility.yul\":7060:7138   */\n      tag_50\n      jump\t// in\n    tag_130:\n        /* \"#utility.yul\":7052:7138   */\n      swap1\n      pop\n        /* \"#utility.yul\":7148:7220   */\n      tag_131\n        /* \"#utility.yul\":7216:7218   */\n      0x60\n        /* \"#utility.yul\":7205:7214   */\n      dup4\n        /* \"#utility.yul\":7201:7219   */\n      add\n        /* \"#utility.yul\":7192:7198   */\n      dup5\n        /* \"#utility.yul\":7148:7220   */\n      tag_51\n      jump\t// in\n    tag_131:\n        /* \"#utility.yul\":6401:7227   */\n      swap6\n      swap5\n      pop\n      pop\n      pop\n      pop\n      pop\n      jump\t// out\n        /* \"#utility.yul\":7233:7381   */\n    tag_52:\n        /* \"#utility.yul\":7335:7346   */\n      0x00\n        /* \"#utility.yul\":7372:7375   */\n      dup2\n        /* \"#utility.yul\":7357:7375   */\n      swap1\n      pop\n        /* \"#utility.yul\":7233:7381   */\n      swap3\n      swap2\n      pop\n      pop\n      jump\t// out\n        /* \"#utility.yul\":7387:7777   */\n    tag_53:\n        /* \"#utility.yul\":7493:7496   */\n      0x00\n        /* \"#utility.yul\":7521:7560   */\n      tag_134\n        /* \"#utility.yul\":7554:7559   */\n      dup3\n        /* \"#utility.yul\":7521:7560   */\n      tag_47\n      jump\t// in\n    tag_134:\n        /* \"#utility.yul\":7576:7665   */\n      tag_135\n        /* \"#utility.yul\":7658:7664   */\n      dup2\n        /* \"#utility.yul\":7653:7656   */\n      dup6\n        /* \"#utility.yul\":7576:7665   */\n      tag_52\n      jump\t// in\n    tag_135:\n        /* \"#utility.yul\":7569:7665   */\n      swap4\n      pop\n        /* \"#utility.yul\":7674:7739   */\n      tag_136\n        /* \"#utility.yul\":7732:7738   */\n      dup2\n        /* \"#utility.yul\":7727:7730   */\n      dup6\n        /* \"#utility.yul\":7720:7724   */\n      0x20\n        /* \"#utility.yul\":7713:7718   */\n      dup7\n        /* \"#utility.yul\":7709:7725   */\n      add\n        /* \"#utility.yul\":7674:7739   */\n      tag_49\n      jump\t// in\n    tag_136:\n        /* \"#utility.yul\":7764:7770   */\n      dup1\n        /* \"#utility.yul\":7759:7762   */\n      dup5\n        /* \"#utility.yul\":7755:7771   */\n      add\n        /* \"#utility.yul\":7748:7771   */\n      swap2\n      pop\n        /* \"#utility.yul\":7497:7777   */\n      pop\n        /* \"#utility.yul\":7387:7777   */\n      swap3\n      swap2\n      pop\n      pop\n      jump\t// out\n        /* \"#utility.yul\":7783:8058   */\n    tag_25:\n        /* \"#utility.yul\":7915:7918   */\n      0x00\n        /* \"#utility.yul\":7937:8032   */\n      tag_138\n        /* \"#utility.yul\":8028:8031   */\n      dup3\n        /* \"#utility.yul\":8019:8025   */\n      dup5\n        /* \"#utility.yul\":7937:8032   */\n      tag_53\n      jump\t// in\n    tag_138:\n        /* \"#utility.yul\":7930:8032   */\n      swap2\n      pop\n        /* \"#utility.yul\":8049:8052   */\n      dup2\n        /* \"#utility.yul\":8042:8052   */\n      swap1\n      pop\n        /* \"#utility.yul\":7783:8058   */\n      swap3\n      swap2\n      pop\n      pop\n      jump\t// out\n        /* \"#utility.yul\":8064:8799   */\n    tag_27:\n        /* \"#utility.yul\":8281:8285   */\n      0x00\n        /* \"#utility.yul\":8319:8322   */\n      0x80\n        /* \"#utility.yul\":8308:8317   */\n      dup3\n        /* \"#utility.yul\":8304:8323   */\n      add\n        /* \"#utility.yul\":8296:8323   */\n      swap1\n      pop\n        /* \"#utility.yul\":8369:8378   */\n      dup2\n        /* \"#utility.yul\":8363:8367   */\n      dup2\n        /* \"#utility.yul\":8359:8379   */\n      sub\n        /* \"#utility.yul\":8355:8356   */\n      0x00\n        /* \"#utility.yul\":8344:8353   */\n      dup4\n        /* \"#utility.yul\":8340:8357   */\n      add\n        /* \"#utility.yul\":8333:8380   */\n      mstore\n        /* \"#utility.yul\":8397:8475   */\n      tag_140\n        /* \"#utility.yul\":8470:8474   */\n      dup2\n        /* \"#utility.yul\":8461:8467   */\n      dup8\n        /* \"#utility.yul\":8397:8475   */\n      tag_50\n      jump\t// in\n    tag_140:\n        /* \"#utility.yul\":8389:8475   */\n      swap1\n      pop\n        /* \"#utility.yul\":8522:8531   */\n      dup2\n        /* \"#utility.yul\":8516:8520   */\n      dup2\n        /* \"#utility.yul\":8512:8532   */\n      sub\n        /* \"#utility.yul\":8507:8509   */\n      0x20\n        /* \"#utility.yul\":8496:8505   */\n      dup4\n        /* \"#utility.yul\":8492:8510   */\n      add\n        /* \"#utility.yul\":8485:8533   */\n      mstore\n        /* \"#utility.yul\":8550:8628   */\n      tag_141\n        /* \"#utility.yul\":8623:8627   */\n      dup2\n        /* \"#utility.yul\":8614:8620   */\n      dup7\n        /* \"#utility.yul\":8550:8628   */\n      tag_50\n      jump\t// in\n    tag_141:\n        /* \"#utility.yul\":8542:8628   */\n      swap1\n      pop\n        /* \"#utility.yul\":8638:8710   */\n      tag_142\n        /* \"#utility.yul\":8706:8708   */\n      0x40\n        /* \"#utility.yul\":8695:8704   */\n      dup4\n        /* \"#utility.yul\":8691:8709   */\n      add\n        /* \"#utility.yul\":8682:8688   */\n      dup6\n        /* \"#utility.yul\":8638:8710   */\n      tag_51\n      jump\t// in\n    tag_142:\n        /* \"#utility.yul\":8720:8792   */\n      tag_143\n        /* \"#utility.yul\":8788:8790   */\n      0x60\n        /* \"#utility.yul\":8777:8786   */\n      dup4\n        /* \"#utility.yul\":8773:8791   */\n      add\n        /* \"#utility.yul\":8764:8770   */\n      dup5\n        /* \"#utility.yul\":8720:8792   */\n      tag_36\n      jump\t// in\n    tag_143:\n        /* \"#utility.yul\":8064:8799   */\n      swap6\n      swap5\n      pop\n      pop\n      pop\n      pop\n      pop\n      jump\t// out\n    stop\n\n    sub_0: assembly {\n            /* \"campain.sol\":807:1621  contract Campaign{... */\n          mstore(0x40, 0x80)\n            /* \"campain.sol\":1088:1364  constructor(string memory campTitile, string memory campImage,... */\n          callvalue\n          dup1\n          iszero\n          tag_1\n          jumpi\n          revert(0x00, 0x00)\n        tag_1:\n          pop\n          mload(0x40)\n          sub(codesize, bytecodeSize)\n          dup1\n          bytecodeSize\n          dup4\n          codecopy\n          dup2\n          dup2\n          add\n          0x40\n          mstore\n          dup2\n          add\n          swap1\n          tag_2\n          swap2\n          swap1\n          tag_3\n          jump\t// in\n        tag_2:\n            /* \"campain.sol\":1221:1231  campTitile */\n          dup4\n            /* \"campain.sol\":1213:1218  Title */\n          0x00\n            /* \"campain.sol\":1213:1231  Title = campTitile */\n          swap1\n          dup2\n          tag_6\n          swap2\n          swap1\n          tag_7\n          jump\t// in\n        tag_6:\n          pop\n            /* \"campain.sol\":1249:1258  campImage */\n          dup3\n            /* \"campain.sol\":1241:1246  Image */\n          0x01\n            /* \"campain.sol\":1241:1258  Image = campImage */\n          swap1\n          dup2\n          tag_8\n          swap2\n          swap1\n          tag_7\n          jump\t// in\n        tag_8:\n          pop\n            /* \"campain.sol\":1276:1285  campStory */\n          dup2\n            /* \"campain.sol\":1268:1273  Story */\n          0x02\n            /* \"campain.sol\":1268:1285  Story = campStory */\n          swap1\n          dup2\n          tag_9\n          swap2\n          swap1\n          tag_7\n          jump\t// in\n        tag_9:\n          pop\n            /* \"campain.sol\":1307:1319  campReqAmout */\n          dup1\n            /* \"campain.sol\":1295:1304  reqAmount */\n          0x03\n            /* \"campain.sol\":1295:1319  reqAmount = campReqAmout */\n          dup2\n          swap1\n          sstore\n          pop\n            /* \"campain.sol\":1346:1356  msg.sender */\n          caller\n            /* \"campain.sol\":1329:1334  Owner */\n          0x05\n          0x00\n            /* \"campain.sol\":1329:1357  Owner  = payable(msg.sender) */\n          0x0100\n          exp\n          dup2\n          sload\n          dup2\n          0xffffffffffffffffffffffffffffffffffffffff\n          mul\n          not\n          and\n          swap1\n          dup4\n          0xffffffffffffffffffffffffffffffffffffffff\n          and\n          mul\n          or\n          swap1\n          sstore\n          pop\n            /* \"campain.sol\":1088:1364  constructor(string memory campTitile, string memory campImage,... */\n          pop\n          pop\n          pop\n          pop\n            /* \"campain.sol\":807:1621  contract Campaign{... */\n          jump(tag_10)\n            /* \"#utility.yul\":7:82   */\n        tag_11:\n            /* \"#utility.yul\":40:46   */\n          0x00\n            /* \"#utility.yul\":73:75   */\n          0x40\n            /* \"#utility.yul\":67:76   */\n          mload\n            /* \"#utility.yul\":57:76   */\n          swap1\n          pop\n            /* \"#utility.yul\":7:82   */\n          swap1\n          jump\t// out\n            /* \"#utility.yul\":88:205   */\n        tag_12:\n            /* \"#utility.yul\":197:198   */\n          0x00\n            /* \"#utility.yul\":194:195   */\n          0x00\n            /* \"#utility.yul\":187:199   */\n          revert\n            /* \"#utility.yul\":211:328   */\n        tag_13:\n            /* \"#utility.yul\":320:321   */\n          0x00\n            /* \"#utility.yul\":317:318   */\n          0x00\n            /* \"#utility.yul\":310:322   */\n          revert\n            /* \"#utility.yul\":334:451   */\n        tag_14:\n            /* \"#utility.yul\":443:444   */\n          0x00\n            /* \"#utility.yul\":440:441   */\n          0x00\n            /* \"#utility.yul\":433:445   */\n          revert\n            /* \"#utility.yul\":457:574   */\n        tag_15:\n            /* \"#utility.yul\":566:567   */\n          0x00\n            /* \"#utility.yul\":563:564   */\n          0x00\n            /* \"#utility.yul\":556:568   */\n          revert\n            /* \"#utility.yul\":580:682   */\n        tag_16:\n            /* \"#utility.yul\":621:627   */\n          0x00\n            /* \"#utility.yul\":672:674   */\n          0x1f\n            /* \"#utility.yul\":668:675   */\n          not\n            /* \"#utility.yul\":663:665   */\n          0x1f\n            /* \"#utility.yul\":656:661   */\n          dup4\n            /* \"#utility.yul\":652:666   */\n          add\n            /* \"#utility.yul\":648:676   */\n          and\n            /* \"#utility.yul\":638:676   */\n          swap1\n          pop\n            /* \"#utility.yul\":580:682   */\n          swap2\n          swap1\n          pop\n          jump\t// out\n            /* \"#utility.yul\":688:868   */\n        tag_17:\n            /* \"#utility.yul\":736:813   */\n          0x4e487b7100000000000000000000000000000000000000000000000000000000\n            /* \"#utility.yul\":733:734   */\n          0x00\n            /* \"#utility.yul\":726:814   */\n          mstore\n            /* \"#utility.yul\":833:837   */\n          0x41\n            /* \"#utility.yul\":830:831   */\n          0x04\n            /* \"#utility.yul\":823:838   */\n          mstore\n            /* \"#utility.yul\":857:861   */\n          0x24\n            /* \"#utility.yul\":854:855   */\n          0x00\n            /* \"#utility.yul\":847:862   */\n          revert\n            /* \"#utility.yul\":874:1155   */\n        tag_18:\n            /* \"#utility.yul\":957:984   */\n          tag_54\n            /* \"#utility.yul\":979:983   */\n          dup3\n            /* \"#utility.yul\":957:984   */\n          tag_16\n          jump\t// in\n        tag_54:\n            /* \"#utility.yul\":949:955   */\n          dup2\n            /* \"#utility.yul\":945:985   */\n          add\n            /* \"#utility.yul\":1087:1093   */\n          dup2\n            /* \"#utility.yul\":1075:1085   */\n          dup2\n            /* \"#utility.yul\":1072:1094   */\n          lt\n            /* \"#utility.yul\":1051:1069   */\n          0xffffffffffffffff\n            /* \"#utility.yul\":1039:1049   */\n          dup3\n            /* \"#utility.yul\":1036:1070   */\n          gt\n            /* \"#utility.yul\":1033:1095   */\n          or\n            /* \"#utility.yul\":1030:1118   */\n          iszero\n          tag_55\n          jumpi\n            /* \"#utility.yul\":1098:1116   */\n          tag_56\n          tag_17\n          jump\t// in\n        tag_56:\n            /* \"#utility.yul\":1030:1118   */\n        tag_55:\n            /* \"#utility.yul\":1138:1148   */\n          dup1\n            /* \"#utility.yul\":1134:1136   */\n          0x40\n            /* \"#utility.yul\":1127:1149   */\n          mstore\n            /* \"#utility.yul\":917:1155   */\n          pop\n            /* \"#utility.yul\":874:1155   */\n          pop\n          pop\n          jump\t// out\n            /* \"#utility.yul\":1161:1290   */\n        tag_19:\n            /* \"#utility.yul\":1195:1201   */\n          0x00\n            /* \"#utility.yul\":1222:1242   */\n          tag_58\n          tag_11\n          jump\t// in\n        tag_58:\n            /* \"#utility.yul\":1212:1242   */\n          swap1\n          pop\n            /* \"#utility.yul\":1251:1284   */\n          tag_59\n            /* \"#utility.yul\":1279:1283   */\n          dup3\n            /* \"#utility.yul\":1271:1277   */\n          dup3\n            /* \"#utility.yul\":1251:1284   */\n          tag_18\n          jump\t// in\n        tag_59:\n            /* \"#utility.yul\":1161:1290   */\n          swap2\n          swap1\n          pop\n          jump\t// out\n            /* \"#utility.yul\":1296:1604   */\n        tag_20:\n            /* \"#utility.yul\":1358:1362   */\n          0x00\n            /* \"#utility.yul\":1448:1466   */\n          0xffffffffffffffff\n            /* \"#utility.yul\":1440:1446   */\n          dup3\n            /* \"#utility.yul\":1437:1467   */\n          gt\n            /* \"#utility.yul\":1434:1490   */\n          iszero\n          tag_61\n          jumpi\n            /* \"#utility.yul\":1470:1488   */\n          tag_62\n          tag_17\n          jump\t// in\n        tag_62:\n            /* \"#utility.yul\":1434:1490   */\n        tag_61:\n            /* \"#utility.yul\":1508:1537   */\n          tag_63\n            /* \"#utility.yul\":1530:1536   */\n          dup3\n            /* \"#utility.yul\":1508:1537   */\n          tag_16\n          jump\t// in\n        tag_63:\n            /* \"#utility.yul\":1500:1537   */\n          swap1\n          pop\n            /* \"#utility.yul\":1592:1596   */\n          0x20\n            /* \"#utility.yul\":1586:1590   */\n          dup2\n            /* \"#utility.yul\":1582:1597   */\n          add\n            /* \"#utility.yul\":1574:1597   */\n          swap1\n          pop\n            /* \"#utility.yul\":1296:1604   */\n          swap2\n          swap1\n          pop\n          jump\t// out\n            /* \"#utility.yul\":1610:1749   */\n        tag_21:\n            /* \"#utility.yul\":1699:1705   */\n          dup3\n            /* \"#utility.yul\":1694:1697   */\n          dup2\n            /* \"#utility.yul\":1689:1692   */\n          dup4\n            /* \"#utility.yul\":1683:1706   */\n          mcopy\n            /* \"#utility.yul\":1740:1741   */\n          0x00\n            /* \"#utility.yul\":1731:1737   */\n          dup4\n            /* \"#utility.yul\":1726:1729   */\n          dup4\n            /* \"#utility.yul\":1722:1738   */\n          add\n            /* \"#utility.yul\":1715:1742   */\n          mstore\n            /* \"#utility.yul\":1610:1749   */\n          pop\n          pop\n          pop\n          jump\t// out\n            /* \"#utility.yul\":1755:2189   */\n        tag_22:\n            /* \"#utility.yul\":1844:1849   */\n          0x00\n            /* \"#utility.yul\":1869:1935   */\n          tag_66\n            /* \"#utility.yul\":1885:1934   */\n          tag_67\n            /* \"#utility.yul\":1927:1933   */\n          dup5\n            /* \"#utility.yul\":1885:1934   */\n          tag_20\n          jump\t// in\n        tag_67:\n            /* \"#utility.yul\":1869:1935   */\n          tag_19\n          jump\t// in\n        tag_66:\n            /* \"#utility.yul\":1860:1935   */\n          swap1\n          pop\n            /* \"#utility.yul\":1958:1964   */\n          dup3\n            /* \"#utility.yul\":1951:1956   */\n          dup2\n            /* \"#utility.yul\":1944:1965   */\n          mstore\n            /* \"#utility.yul\":1996:2000   */\n          0x20\n            /* \"#utility.yul\":1989:1994   */\n          dup2\n            /* \"#utility.yul\":1985:2001   */\n          add\n            /* \"#utility.yul\":2034:2037   */\n          dup5\n            /* \"#utility.yul\":2025:2031   */\n          dup5\n            /* \"#utility.yul\":2020:2023   */\n          dup5\n            /* \"#utility.yul\":2016:2032   */\n          add\n            /* \"#utility.yul\":2013:2038   */\n          gt\n            /* \"#utility.yul\":2010:2122   */\n          iszero\n          tag_68\n          jumpi\n            /* \"#utility.yul\":2041:2120   */\n          tag_69\n          tag_15\n          jump\t// in\n        tag_69:\n            /* \"#utility.yul\":2010:2122   */\n        tag_68:\n            /* \"#utility.yul\":2131:2183   */\n          tag_70\n            /* \"#utility.yul\":2176:2182   */\n          dup5\n            /* \"#utility.yul\":2171:2174   */\n          dup3\n            /* \"#utility.yul\":2166:2169   */\n          dup6\n            /* \"#utility.yul\":2131:2183   */\n          tag_21\n          jump\t// in\n        tag_70:\n            /* \"#utility.yul\":1850:2189   */\n          pop\n            /* \"#utility.yul\":1755:2189   */\n          swap4\n          swap3\n          pop\n          pop\n          pop\n          jump\t// out\n            /* \"#utility.yul\":2209:2564   */\n        tag_23:\n            /* \"#utility.yul\":2276:2281   */\n          0x00\n            /* \"#utility.yul\":2325:2328   */\n          dup3\n            /* \"#utility.yul\":2318:2322   */\n          0x1f\n            /* \"#utility.yul\":2310:2316   */\n          dup4\n            /* \"#utility.yul\":2306:2323   */\n          add\n            /* \"#utility.yul\":2302:2329   */\n          slt\n            /* \"#utility.yul\":2292:2414   */\n          tag_72\n          jumpi\n            /* \"#utility.yul\":2333:2412   */\n          tag_73\n          tag_14\n          jump\t// in\n        tag_73:\n            /* \"#utility.yul\":2292:2414   */\n        tag_72:\n            /* \"#utility.yul\":2443:2449   */\n          dup2\n            /* \"#utility.yul\":2437:2450   */\n          mload\n            /* \"#utility.yul\":2468:2558   */\n          tag_74\n            /* \"#utility.yul\":2554:2557   */\n          dup5\n            /* \"#utility.yul\":2546:2552   */\n          dup3\n            /* \"#utility.yul\":2539:2543   */\n          0x20\n            /* \"#utility.yul\":2531:2537   */\n          dup7\n            /* \"#utility.yul\":2527:2544   */\n          add\n            /* \"#utility.yul\":2468:2558   */\n          tag_22\n          jump\t// in\n        tag_74:\n            /* \"#utility.yul\":2459:2558   */\n          swap2\n          pop\n            /* \"#utility.yul\":2282:2564   */\n          pop\n            /* \"#utility.yul\":2209:2564   */\n          swap3\n          swap2\n          pop\n          pop\n          jump\t// out\n            /* \"#utility.yul\":2570:2647   */\n        tag_24:\n            /* \"#utility.yul\":2607:2614   */\n          0x00\n            /* \"#utility.yul\":2636:2641   */\n          dup2\n            /* \"#utility.yul\":2625:2641   */\n          swap1\n          pop\n            /* \"#utility.yul\":2570:2647   */\n          swap2\n          swap1\n          pop\n          jump\t// out\n            /* \"#utility.yul\":2653:2775   */\n        tag_25:\n            /* \"#utility.yul\":2726:2750   */\n          tag_77\n            /* \"#utility.yul\":2744:2749   */\n          dup2\n            /* \"#utility.yul\":2726:2750   */\n          tag_24\n          jump\t// in\n        tag_77:\n            /* \"#utility.yul\":2719:2724   */\n          dup2\n            /* \"#utility.yul\":2716:2751   */\n          eq\n            /* \"#utility.yul\":2706:2769   */\n          tag_78\n          jumpi\n            /* \"#utility.yul\":2765:2766   */\n          0x00\n            /* \"#utility.yul\":2762:2763   */\n          0x00\n            /* \"#utility.yul\":2755:2767   */\n          revert\n            /* \"#utility.yul\":2706:2769   */\n        tag_78:\n            /* \"#utility.yul\":2653:2775   */\n          pop\n          jump\t// out\n            /* \"#utility.yul\":2781:2924   */\n        tag_26:\n            /* \"#utility.yul\":2838:2843   */\n          0x00\n            /* \"#utility.yul\":2869:2875   */\n          dup2\n            /* \"#utility.yul\":2863:2876   */\n          mload\n            /* \"#utility.yul\":2854:2876   */\n          swap1\n          pop\n            /* \"#utility.yul\":2885:2918   */\n          tag_80\n            /* \"#utility.yul\":2912:2917   */\n          dup2\n            /* \"#utility.yul\":2885:2918   */\n          tag_25\n          jump\t// in\n        tag_80:\n            /* \"#utility.yul\":2781:2924   */\n          swap3\n          swap2\n          pop\n          pop\n          jump\t// out\n            /* \"#utility.yul\":2930:4269   */\n        tag_3:\n            /* \"#utility.yul\":3057:3063   */\n          0x00\n            /* \"#utility.yul\":3065:3071   */\n          0x00\n            /* \"#utility.yul\":3073:3079   */\n          0x00\n            /* \"#utility.yul\":3081:3087   */\n          0x00\n            /* \"#utility.yul\":3130:3133   */\n          0x80\n            /* \"#utility.yul\":3118:3127   */\n          dup6\n            /* \"#utility.yul\":3109:3116   */\n          dup8\n            /* \"#utility.yul\":3105:3128   */\n          sub\n            /* \"#utility.yul\":3101:3134   */\n          slt\n            /* \"#utility.yul\":3098:3218   */\n          iszero\n          tag_82\n          jumpi\n            /* \"#utility.yul\":3137:3216   */\n          tag_83\n          tag_12\n          jump\t// in\n        tag_83:\n            /* \"#utility.yul\":3098:3218   */\n        tag_82:\n            /* \"#utility.yul\":3278:3279   */\n          0x00\n            /* \"#utility.yul\":3267:3276   */\n          dup6\n            /* \"#utility.yul\":3263:3280   */\n          add\n            /* \"#utility.yul\":3257:3281   */\n          mload\n            /* \"#utility.yul\":3308:3326   */\n          0xffffffffffffffff\n            /* \"#utility.yul\":3300:3306   */\n          dup2\n            /* \"#utility.yul\":3297:3327   */\n          gt\n            /* \"#utility.yul\":3294:3411   */\n          iszero\n          tag_84\n          jumpi\n            /* \"#utility.yul\":3330:3409   */\n          tag_85\n          tag_13\n          jump\t// in\n        tag_85:\n            /* \"#utility.yul\":3294:3411   */\n        tag_84:\n            /* \"#utility.yul\":3435:3509   */\n          tag_86\n            /* \"#utility.yul\":3501:3508   */\n          dup8\n            /* \"#utility.yul\":3492:3498   */\n          dup3\n            /* \"#utility.yul\":3481:3490   */\n          dup9\n            /* \"#utility.yul\":3477:3499   */\n          add\n            /* \"#utility.yul\":3435:3509   */\n          tag_23\n          jump\t// in\n        tag_86:\n            /* \"#utility.yul\":3425:3509   */\n          swap5\n          pop\n            /* \"#utility.yul\":3228:3519   */\n          pop\n            /* \"#utility.yul\":3579:3581   */\n          0x20\n            /* \"#utility.yul\":3568:3577   */\n          dup6\n            /* \"#utility.yul\":3564:3582   */\n          add\n            /* \"#utility.yul\":3558:3583   */\n          mload\n            /* \"#utility.yul\":3610:3628   */\n          0xffffffffffffffff\n            /* \"#utility.yul\":3602:3608   */\n          dup2\n            /* \"#utility.yul\":3599:3629   */\n          gt\n            /* \"#utility.yul\":3596:3713   */\n          iszero\n          tag_87\n          jumpi\n            /* \"#utility.yul\":3632:3711   */\n          tag_88\n          tag_13\n          jump\t// in\n        tag_88:\n            /* \"#utility.yul\":3596:3713   */\n        tag_87:\n            /* \"#utility.yul\":3737:3811   */\n          tag_89\n            /* \"#utility.yul\":3803:3810   */\n          dup8\n            /* \"#utility.yul\":3794:3800   */\n          dup3\n            /* \"#utility.yul\":3783:3792   */\n          dup9\n            /* \"#utility.yul\":3779:3801   */\n          add\n            /* \"#utility.yul\":3737:3811   */\n          tag_23\n          jump\t// in\n        tag_89:\n            /* \"#utility.yul\":3727:3811   */\n          swap4\n          pop\n            /* \"#utility.yul\":3529:3821   */\n          pop\n            /* \"#utility.yul\":3881:3883   */\n          0x40\n            /* \"#utility.yul\":3870:3879   */\n          dup6\n            /* \"#utility.yul\":3866:3884   */\n          add\n            /* \"#utility.yul\":3860:3885   */\n          mload\n            /* \"#utility.yul\":3912:3930   */\n          0xffffffffffffffff\n            /* \"#utility.yul\":3904:3910   */\n          dup2\n            /* \"#utility.yul\":3901:3931   */\n          gt\n            /* \"#utility.yul\":3898:4015   */\n          iszero\n          tag_90\n          jumpi\n            /* \"#utility.yul\":3934:4013   */\n          tag_91\n          tag_13\n          jump\t// in\n        tag_91:\n            /* \"#utility.yul\":3898:4015   */\n        tag_90:\n            /* \"#utility.yul\":4039:4113   */\n          tag_92\n            /* \"#utility.yul\":4105:4112   */\n          dup8\n            /* \"#utility.yul\":4096:4102   */\n          dup3\n            /* \"#utility.yul\":4085:4094   */\n          dup9\n            /* \"#utility.yul\":4081:4103   */\n          add\n            /* \"#utility.yul\":4039:4113   */\n          tag_23\n          jump\t// in\n        tag_92:\n            /* \"#utility.yul\":4029:4113   */\n          swap3\n          pop\n            /* \"#utility.yul\":3831:4123   */\n          pop\n            /* \"#utility.yul\":4162:4164   */\n          0x60\n            /* \"#utility.yul\":4188:4252   */\n          tag_93\n            /* \"#utility.yul\":4244:4251   */\n          dup8\n            /* \"#utility.yul\":4235:4241   */\n          dup3\n            /* \"#utility.yul\":4224:4233   */\n          dup9\n            /* \"#utility.yul\":4220:4242   */\n          add\n            /* \"#utility.yul\":4188:4252   */\n          tag_26\n          jump\t// in\n        tag_93:\n            /* \"#utility.yul\":4178:4252   */\n          swap2\n          pop\n            /* \"#utility.yul\":4133:4262   */\n          pop\n            /* \"#utility.yul\":2930:4269   */\n          swap3\n          swap6\n          swap2\n          swap5\n          pop\n          swap3\n          pop\n          jump\t// out\n            /* \"#utility.yul\":4275:4374   */\n        tag_27:\n            /* \"#utility.yul\":4327:4333   */\n          0x00\n            /* \"#utility.yul\":4361:4366   */\n          dup2\n            /* \"#utility.yul\":4355:4367   */\n          mload\n            /* \"#utility.yul\":4345:4367   */\n          swap1\n          pop\n            /* \"#utility.yul\":4275:4374   */\n          swap2\n          swap1\n          pop\n          jump\t// out\n            /* \"#utility.yul\":4380:4560   */\n        tag_28:\n            /* \"#utility.yul\":4428:4505   */\n          0x4e487b7100000000000000000000000000000000000000000000000000000000\n            /* \"#utility.yul\":4425:4426   */\n          0x00\n            /* \"#utility.yul\":4418:4506   */\n          mstore\n            /* \"#utility.yul\":4525:4529   */\n          0x22\n            /* \"#utility.yul\":4522:4523   */\n          0x04\n            /* \"#utility.yul\":4515:4530   */\n          mstore\n            /* \"#utility.yul\":4549:4553   */\n          0x24\n            /* \"#utility.yul\":4546:4547   */\n          0x00\n            /* \"#utility.yul\":4539:4554   */\n          revert\n            /* \"#utility.yul\":4566:4886   */\n        tag_29:\n            /* \"#utility.yul\":4610:4616   */\n          0x00\n            /* \"#utility.yul\":4647:4648   */\n          0x02\n            /* \"#utility.yul\":4641:4645   */\n          dup3\n            /* \"#utility.yul\":4637:4649   */\n          div\n            /* \"#utility.yul\":4627:4649   */\n          swap1\n          pop\n            /* \"#utility.yul\":4694:4695   */\n          0x01\n            /* \"#utility.yul\":4688:4692   */\n          dup3\n            /* \"#utility.yul\":4684:4696   */\n          and\n            /* \"#utility.yul\":4715:4733   */\n          dup1\n            /* \"#utility.yul\":4705:4786   */\n          tag_97\n          jumpi\n            /* \"#utility.yul\":4771:4775   */\n          0x7f\n            /* \"#utility.yul\":4763:4769   */\n          dup3\n            /* \"#utility.yul\":4759:4776   */\n          and\n            /* \"#utility.yul\":4749:4776   */\n          swap2\n          pop\n            /* \"#utility.yul\":4705:4786   */\n        tag_97:\n            /* \"#utility.yul\":4833:4835   */\n          0x20\n            /* \"#utility.yul\":4825:4831   */\n          dup3\n            /* \"#utility.yul\":4822:4836   */\n          lt\n            /* \"#utility.yul\":4802:4820   */\n          dup2\n            /* \"#utility.yul\":4799:4837   */\n          sub\n            /* \"#utility.yul\":4796:4880   */\n          tag_98\n          jumpi\n            /* \"#utility.yul\":4852:4870   */\n          tag_99\n          tag_28\n          jump\t// in\n        tag_99:\n            /* \"#utility.yul\":4796:4880   */\n        tag_98:\n            /* \"#utility.yul\":4617:4886   */\n          pop\n            /* \"#utility.yul\":4566:4886   */\n          swap2\n          swap1\n          pop\n          jump\t// out\n            /* \"#utility.yul\":4892:5033   */\n        tag_30:\n            /* \"#utility.yul\":4941:4945   */\n          0x00\n            /* \"#utility.yul\":4964:4967   */\n          dup2\n            /* \"#utility.yul\":4956:4967   */\n          swap1\n          pop\n            /* \"#utility.yul\":4987:4990   */\n          dup2\n            /* \"#utility.yul\":4984:4985   */\n          0x00\n            /* \"#utility.yul\":4977:4991   */\n          mstore\n            /* \"#utility.yul\":5021:5025   */\n          0x20\n            /* \"#utility.yul\":5018:5019   */\n          0x00\n            /* \"#utility.yul\":5008:5026   */\n          keccak256\n            /* \"#utility.yul\":5000:5026   */\n          swap1\n          pop\n            /* \"#utility.yul\":4892:5033   */\n          swap2\n          swap1\n          pop\n          jump\t// out\n            /* \"#utility.yul\":5039:5132   */\n        tag_31:\n            /* \"#utility.yul\":5076:5082   */\n          0x00\n            /* \"#utility.yul\":5123:5125   */\n          0x20\n            /* \"#utility.yul\":5118:5120   */\n          0x1f\n            /* \"#utility.yul\":5111:5116   */\n          dup4\n            /* \"#utility.yul\":5107:5121   */\n          add\n            /* \"#utility.yul\":5103:5126   */\n          div\n            /* \"#utility.yul\":5093:5126   */\n          swap1\n          pop\n            /* \"#utility.yul\":5039:5132   */\n          swap2\n          swap1\n          pop\n          jump\t// out\n            /* \"#utility.yul\":5138:5245   */\n        tag_32:\n            /* \"#utility.yul\":5182:5190   */\n          0x00\n            /* \"#utility.yul\":5232:5237   */\n          dup3\n            /* \"#utility.yul\":5226:5230   */\n          dup3\n            /* \"#utility.yul\":5222:5238   */\n          shl\n            /* \"#utility.yul\":5201:5238   */\n          swap1\n          pop\n            /* \"#utility.yul\":5138:5245   */\n          swap3\n          swap2\n          pop\n          pop\n          jump\t// out\n            /* \"#utility.yul\":5251:5644   */\n        tag_33:\n            /* \"#utility.yul\":5320:5326   */\n          0x00\n            /* \"#utility.yul\":5370:5371   */\n          0x08\n            /* \"#utility.yul\":5358:5368   */\n          dup4\n            /* \"#utility.yul\":5354:5372   */\n          mul\n            /* \"#utility.yul\":5393:5490   */\n          tag_104\n            /* \"#utility.yul\":5423:5489   */\n          0xffffffffffffffffffffffffffffffffffffffffffffffffffffffffffffffff\n            /* \"#utility.yul\":5412:5421   */\n          dup3\n            /* \"#utility.yul\":5393:5490   */\n          tag_32\n          jump\t// in\n        tag_104:\n            /* \"#utility.yul\":5511:5550   */\n          tag_105\n            /* \"#utility.yul\":5541:5549   */\n          dup7\n            /* \"#utility.yul\":5530:5539   */\n          dup4\n            /* \"#utility.yul\":5511:5550   */\n          tag_32\n          jump\t// in\n        tag_105:\n            /* \"#utility.yul\":5499:5550   */\n          swap6\n          pop\n            /* \"#utility.yul\":5583:5587   */\n          dup1\n            /* \"#utility.yul\":5579:5588   */\n          not\n            /* \"#utility.yul\":5572:5577   */\n          dup5\n            /* \"#utility.yul\":5568:5589   */\n          and\n            /* \"#utility.yul\":5559:5589   */\n          swap4\n          pop\n            /* \"#utility.yul\":5632:5636   */\n          dup1\n            /* \"#utility.yul\":5622:5630   */\n          dup7\n            /* \"#utility.yul\":5618:5637   */\n          and\n            /* \"#utility.yul\":5611:5616   */\n          dup5\n            /* \"#utility.yul\":5608:5638   */\n          or\n            /* \"#utility.yul\":5598:5638   */\n          swap3\n          pop\n            /* \"#utility.yul\":5327:5644   */\n          pop\n          pop\n            /* \"#utility.yul\":5251:5644   */\n          swap4\n          swap3\n          pop\n          pop\n          pop\n          jump\t// out\n            /* \"#utility.yul\":5650:5710   */\n        tag_34:\n            /* \"#utility.yul\":5678:5681   */\n          0x00\n            /* \"#utility.yul\":5699:5704   */\n          dup2\n            /* \"#utility.yul\":5692:5704   */\n          swap1\n          pop\n            /* \"#utility.yul\":5650:5710   */\n          swap2\n          swap1\n          pop\n          jump\t// out\n            /* \"#utility.yul\":5716:5858   */\n        tag_35:\n            /* \"#utility.yul\":5766:5775   */\n          0x00\n            /* \"#utility.yul\":5799:5852   */\n          tag_108\n            /* \"#utility.yul\":5817:5851   */\n          tag_109\n            /* \"#utility.yul\":5826:5850   */\n          tag_110\n            /* \"#utility.yul\":5844:5849   */\n          dup5\n            /* \"#utility.yul\":5826:5850   */\n          tag_24\n          jump\t// in\n        tag_110:\n            /* \"#utility.yul\":5817:5851   */\n          tag_34\n          jump\t// in\n        tag_109:\n            /* \"#utility.yul\":5799:5852   */\n          tag_24\n          jump\t// in\n        tag_108:\n            /* \"#utility.yul\":5786:5852   */\n          swap1\n          pop\n            /* \"#utility.yul\":5716:5858   */\n          swap2\n          swap1\n          pop\n          jump\t// out\n            /* \"#utility.yul\":5864:5939   */\n        tag_36:\n            /* \"#utility.yul\":5907:5910   */\n          0x00\n            /* \"#utility.yul\":5928:5933   */\n          dup2\n            /* \"#utility.yul\":5921:5933   */\n          swap1\n          pop\n            /* \"#utility.yul\":5864:5939   */\n          swap2\n          swap1\n          pop\n          jump\t// out\n            /* \"#utility.yul\":5945:6214   */\n        tag_37:\n            /* \"#utility.yul\":6055:6094   */\n          tag_113\n            /* \"#utility.yul\":6086:6093   */\n          dup4\n            /* \"#utility.yul\":6055:6094   */\n          tag_35\n          jump\t// in\n        tag_113:\n            /* \"#utility.yul\":6116:6207   */\n          tag_114\n            /* \"#utility.yul\":6165:6206   */\n          tag_115\n            /* \"#utility.yul\":6189:6205   */\n          dup3\n            /* \"#utility.yul\":6165:6206   */\n          tag_36\n          jump\t// in\n        tag_115:\n            /* \"#utility.yul\":6157:6163   */\n          dup5\n            /* \"#utility.yul\":6150:6154   */\n          dup5\n            /* \"#utility.yul\":6144:6155   */\n          sload\n            /* \"#utility.yul\":6116:6207   */\n          tag_33\n          jump\t// in\n        tag_114:\n            /* \"#utility.yul\":6110:6114   */\n          dup3\n            /* \"#utility.yul\":6103:6208   */\n          sstore\n            /* \"#utility.yul\":6021:6214   */\n          pop\n            /* \"#utility.yul\":5945:6214   */\n          pop\n          pop\n          pop\n          jump\t// out\n            /* \"#utility.yul\":6220:6293   */\n        tag_38:\n            /* \"#utility.yul\":6265:6268   */\n          0x00\n            /* \"#utility.yul\":6286:6287   */\n          0x00\n            /* \"#utility.yul\":6279:6287   */\n          swap1\n          pop\n            /* \"#utility.yul\":6220:6293   */\n          swap1\n          jump\t// out\n            /* \"#utility.yul\":6299:6488   */\n        tag_39:\n            /* \"#utility.yul\":6376:6408   */\n          tag_118\n          tag_38\n          jump\t// in\n        tag_118:\n            /* \"#utility.yul\":6417:6482   */\n          tag_119\n            /* \"#utility.yul\":6475:6481   */\n          dup2\n            /* \"#utility.yul\":6467:6473   */\n          dup5\n            /* \"#utility.yul\":6461:6465   */\n          dup5\n            /* \"#utility.yul\":6417:6482   */\n          tag_37\n          jump\t// in\n        tag_119:\n            /* \"#utility.yul\":6352:6488   */\n          pop\n            /* \"#utility.yul\":6299:6488   */\n          pop\n          pop\n          jump\t// out\n            /* \"#utility.yul\":6494:6680   */\n        tag_40:\n            /* \"#utility.yul\":6554:6674   */\n        tag_121:\n            /* \"#utility.yul\":6571:6574   */\n          dup2\n            /* \"#utility.yul\":6564:6569   */\n          dup2\n            /* \"#utility.yul\":6561:6575   */\n          lt\n            /* \"#utility.yul\":6554:6674   */\n          iszero\n          tag_123\n          jumpi\n            /* \"#utility.yul\":6625:6664   */\n          tag_124\n            /* \"#utility.yul\":6662:6663   */\n          0x00\n            /* \"#utility.yul\":6655:6660   */\n          dup3\n            /* \"#utility.yul\":6625:6664   */\n          tag_39\n          jump\t// in\n        tag_124:\n            /* \"#utility.yul\":6598:6599   */\n          0x01\n            /* \"#utility.yul\":6591:6596   */\n          dup2\n            /* \"#utility.yul\":6587:6600   */\n          add\n            /* \"#utility.yul\":6578:6600   */\n          swap1\n          pop\n            /* \"#utility.yul\":6554:6674   */\n          jump(tag_121)\n        tag_123:\n            /* \"#utility.yul\":6494:6680   */\n          pop\n          pop\n          jump\t// out\n            /* \"#utility.yul\":6686:7229   */\n        tag_41:\n            /* \"#utility.yul\":6787:6789   */\n          0x1f\n            /* \"#utility.yul\":6782:6785   */\n          dup3\n            /* \"#utility.yul\":6779:6790   */\n          gt\n            /* \"#utility.yul\":6776:7222   */\n          iszero\n          tag_126\n          jumpi\n            /* \"#utility.yul\":6821:6859   */\n          tag_127\n            /* \"#utility.yul\":6853:6858   */\n          dup2\n            /* \"#utility.yul\":6821:6859   */\n          tag_30\n          jump\t// in\n        tag_127:\n            /* \"#utility.yul\":6905:6934   */\n          tag_128\n            /* \"#utility.yul\":6923:6933   */\n          dup5\n            /* \"#utility.yul\":6905:6934   */\n          tag_31\n          jump\t// in\n        tag_128:\n            /* \"#utility.yul\":6895:6903   */\n          dup2\n            /* \"#utility.yul\":6891:6935   */\n          add\n            /* \"#utility.yul\":7088:7090   */\n          0x20\n            /* \"#utility.yul\":7076:7086   */\n          dup6\n            /* \"#utility.yul\":7073:7091   */\n          lt\n            /* \"#utility.yul\":7070:7119   */\n          iszero\n          tag_129\n          jumpi\n            /* \"#utility.yul\":7109:7117   */\n          dup2\n            /* \"#utility.yul\":7094:7117   */\n          swap1\n          pop\n            /* \"#utility.yul\":7070:7119   */\n        tag_129:\n            /* \"#utility.yul\":7132:7212   */\n          tag_130\n            /* \"#utility.yul\":7188:7210   */\n          tag_131\n            /* \"#utility.yul\":7206:7209   */\n          dup6\n            /* \"#utility.yul\":7188:7210   */\n          tag_31\n          jump\t// in\n        tag_131:\n            /* \"#utility.yul\":7178:7186   */\n          dup4\n            /* \"#utility.yul\":7174:7211   */\n          add\n            /* \"#utility.yul\":7161:7172   */\n          dup3\n            /* \"#utility.yul\":7132:7212   */\n          tag_40\n          jump\t// in\n        tag_130:\n            /* \"#utility.yul\":6791:7222   */\n          pop\n          pop\n            /* \"#utility.yul\":6776:7222   */\n        tag_126:\n            /* \"#utility.yul\":6686:7229   */\n          pop\n          pop\n          pop\n          jump\t// out\n            /* \"#utility.yul\":7235:7352   */\n        tag_42:\n            /* \"#utility.yul\":7289:7297   */\n          0x00\n            /* \"#utility.yul\":7339:7344   */\n          dup3\n            /* \"#utility.yul\":7333:7337   */\n          dup3\n            /* \"#utility.yul\":7329:7345   */\n          shr\n            /* \"#utility.yul\":7308:7345   */\n          swap1\n          pop\n            /* \"#utility.yul\":7235:7352   */\n          swap3\n          swap2\n          pop\n          pop\n          jump\t// out\n            /* \"#utility.yul\":7358:7527   */\n        tag_43:\n            /* \"#utility.yul\":7402:7408   */\n          0x00\n            /* \"#utility.yul\":7435:7486   */\n          tag_134\n            /* \"#utility.yul\":7483:7484   */\n          0x00\n            /* \"#utility.yul\":7479:7485   */\n          not\n            /* \"#utility.yul\":7471:7476   */\n          dup5\n            /* \"#utility.yul\":7468:7469   */\n          0x08\n            /* \"#utility.yul\":7464:7477   */\n          mul\n            /* \"#utility.yul\":7435:7486   */\n          tag_42\n          jump\t// in\n        tag_134:\n            /* \"#utility.yul\":7431:7487   */\n          not\n            /* \"#utility.yul\":7516:7520   */\n          dup1\n            /* \"#utility.yul\":7510:7514   */\n          dup4\n            /* \"#utility.yul\":7506:7521   */\n          and\n            /* \"#utility.yul\":7496:7521   */\n          swap2\n          pop\n            /* \"#utility.yul\":7409:7527   */\n          pop\n            /* \"#utility.yul\":7358:7527   */\n          swap3\n          swap2\n          pop\n          pop\n          jump\t// out\n            /* \"#utility.yul\":7532:7827   */\n        tag_44:\n            /* \"#utility.yul\":7608:7612   */\n          0x00\n            /* \"#utility.yul\":7754:7783   */\n          tag_136\n            /* \"#utility.yul\":7779:7782   */\n          dup4\n            /* \"#utility.yul\":7773:7777   */\n          dup4\n            /* \"#utility.yul\":7754:7783   */\n          tag_43\n          jump\t// in\n        tag_136:\n            /* \"#utility.yul\":7746:7783   */\n          swap2\n          pop\n            /* \"#utility.yul\":7816:7819   */\n          dup3\n            /* \"#utility.yul\":7813:7814   */\n          0x02\n            /* \"#utility.yul\":7809:7820   */\n          mul\n            /* \"#utility.yul\":7803:7807   */\n          dup3\n            /* \"#utility.yul\":7800:7821   */\n          or\n            /* \"#utility.yul\":7792:7821   */\n          swap1\n          pop\n            /* \"#utility.yul\":7532:7827   */\n          swap3\n          swap2\n          pop\n          pop\n          jump\t// out\n            /* \"#utility.yul\":7832:9227   */\n        tag_7:\n            /* \"#utility.yul\":7949:7986   */\n          tag_138\n            /* \"#utility.yul\":7982:7985   */\n          dup3\n            /* \"#utility.yul\":7949:7986   */\n          tag_27\n          jump\t// in\n        tag_138:\n            /* \"#utility.yul\":8051:8069   */\n          0xffffffffffffffff\n            /* \"#utility.yul\":8043:8049   */\n          dup2\n            /* \"#utility.yul\":8040:8070   */\n          gt\n            /* \"#utility.yul\":8037:8093   */\n          iszero\n          tag_139\n          jumpi\n            /* \"#utility.yul\":8073:8091   */\n          tag_140\n          tag_17\n          jump\t// in\n        tag_140:\n            /* \"#utility.yul\":8037:8093   */\n        tag_139:\n            /* \"#utility.yul\":8117:8155   */\n          tag_141\n            /* \"#utility.yul\":8149:8153   */\n          dup3\n            /* \"#utility.yul\":8143:8154   */\n          sload\n            /* \"#utility.yul\":8117:8155   */\n          tag_29\n          jump\t// in\n        tag_141:\n            /* \"#utility.yul\":8202:8269   */\n          tag_142\n            /* \"#utility.yul\":8262:8268   */\n          dup3\n            /* \"#utility.yul\":8254:8260   */\n          dup3\n            /* \"#utility.yul\":8248:8252   */\n          dup6\n            /* \"#utility.yul\":8202:8269   */\n          tag_41\n          jump\t// in\n        tag_142:\n            /* \"#utility.yul\":8296:8297   */\n          0x00\n            /* \"#utility.yul\":8320:8324   */\n          0x20\n            /* \"#utility.yul\":8307:8324   */\n          swap1\n          pop\n            /* \"#utility.yul\":8352:8354   */\n          0x1f\n            /* \"#utility.yul\":8344:8350   */\n          dup4\n            /* \"#utility.yul\":8341:8355   */\n          gt\n            /* \"#utility.yul\":8369:8370   */\n          0x01\n            /* \"#utility.yul\":8364:8982   */\n          dup2\n          eq\n          tag_144\n          jumpi\n            /* \"#utility.yul\":9026:9027   */\n          0x00\n            /* \"#utility.yul\":9043:9049   */\n          dup5\n            /* \"#utility.yul\":9040:9117   */\n          iszero\n          tag_145\n          jumpi\n            /* \"#utility.yul\":9092:9101   */\n          dup3\n            /* \"#utility.yul\":9087:9090   */\n          dup8\n            /* \"#utility.yul\":9083:9102   */\n          add\n            /* \"#utility.yul\":9077:9103   */\n          mload\n            /* \"#utility.yul\":9068:9103   */\n          swap1\n          pop\n            /* \"#utility.yul\":9040:9117   */\n        tag_145:\n            /* \"#utility.yul\":9143:9210   */\n          tag_146\n            /* \"#utility.yul\":9203:9209   */\n          dup6\n            /* \"#utility.yul\":9196:9201   */\n          dup3\n            /* \"#utility.yul\":9143:9210   */\n          tag_44\n          jump\t// in\n        tag_146:\n            /* \"#utility.yul\":9137:9141   */\n          dup7\n            /* \"#utility.yul\":9130:9211   */\n          sstore\n            /* \"#utility.yul\":8999:9221   */\n          pop\n            /* \"#utility.yul\":8334:9221   */\n          jump(tag_143)\n            /* \"#utility.yul\":8364:8982   */\n        tag_144:\n            /* \"#utility.yul\":8416:8420   */\n          0x1f\n            /* \"#utility.yul\":8412:8421   */\n          not\n            /* \"#utility.yul\":8404:8410   */\n          dup5\n            /* \"#utility.yul\":8400:8422   */\n          and\n            /* \"#utility.yul\":8450:8487   */\n          tag_147\n            /* \"#utility.yul\":8482:8486   */\n          dup7\n            /* \"#utility.yul\":8450:8487   */\n          tag_30\n          jump\t// in\n        tag_147:\n            /* \"#utility.yul\":8509:8510   */\n          0x00\n            /* \"#utility.yul\":8523:8731   */\n        tag_148:\n            /* \"#utility.yul\":8537:8544   */\n          dup3\n            /* \"#utility.yul\":8534:8535   */\n          dup2\n            /* \"#utility.yul\":8531:8545   */\n          lt\n            /* \"#utility.yul\":8523:8731   */\n          iszero\n          tag_150\n          jumpi\n            /* \"#utility.yul\":8616:8625   */\n          dup5\n            /* \"#utility.yul\":8611:8614   */\n          dup10\n            /* \"#utility.yul\":8607:8626   */\n          add\n            /* \"#utility.yul\":8601:8627   */\n          mload\n            /* \"#utility.yul\":8593:8599   */\n          dup3\n            /* \"#utility.yul\":8586:8628   */\n          sstore\n            /* \"#utility.yul\":8667:8668   */\n          0x01\n            /* \"#utility.yul\":8659:8665   */\n          dup3\n            /* \"#utility.yul\":8655:8669   */\n          add\n            /* \"#utility.yul\":8645:8669   */\n          swap2\n          pop\n            /* \"#utility.yul\":8714:8716   */\n          0x20\n            /* \"#utility.yul\":8703:8712   */\n          dup6\n            /* \"#utility.yul\":8699:8717   */\n          add\n            /* \"#utility.yul\":8686:8717   */\n          swap5\n          pop\n            /* \"#utility.yul\":8560:8564   */\n          0x20\n            /* \"#utility.yul\":8557:8558   */\n          dup2\n            /* \"#utility.yul\":8553:8565   */\n          add\n            /* \"#utility.yul\":8548:8565   */\n          swap1\n          pop\n            /* \"#utility.yul\":8523:8731   */\n          jump(tag_148)\n        tag_150:\n            /* \"#utility.yul\":8759:8765   */\n          dup7\n            /* \"#utility.yul\":8750:8757   */\n          dup4\n            /* \"#utility.yul\":8747:8766   */\n          lt\n            /* \"#utility.yul\":8744:8923   */\n          iszero\n          tag_151\n          jumpi\n            /* \"#utility.yul\":8817:8826   */\n          dup5\n            /* \"#utility.yul\":8812:8815   */\n          dup10\n            /* \"#utility.yul\":8808:8827   */\n          add\n            /* \"#utility.yul\":8802:8828   */\n          mload\n            /* \"#utility.yul\":8860:8908   */\n          tag_152\n            /* \"#utility.yul\":8902:8906   */\n          0x1f\n            /* \"#utility.yul\":8894:8900   */\n          dup10\n            /* \"#utility.yul\":8890:8907   */\n          and\n            /* \"#utility.yul\":8879:8888   */\n          dup3\n            /* \"#utility.yul\":8860:8908   */\n          tag_43\n          jump\t// in\n        tag_152:\n            /* \"#utility.yul\":8852:8858   */\n          dup4\n            /* \"#utility.yul\":8845:8909   */\n          sstore\n            /* \"#utility.yul\":8767:8923   */\n          pop\n            /* \"#utility.yul\":8744:8923   */\n        tag_151:\n            /* \"#utility.yul\":8969:8970   */\n          0x01\n            /* \"#utility.yul\":8965:8966   */\n          0x02\n            /* \"#utility.yul\":8957:8963   */\n          dup9\n            /* \"#utility.yul\":8953:8967   */\n          mul\n            /* \"#utility.yul\":8949:8971   */\n          add\n            /* \"#utility.yul\":8943:8947   */\n          dup9\n            /* \"#utility.yul\":8936:8972   */\n          sstore\n            /* \"#utility.yul\":8371:8982   */\n          pop\n          pop\n          pop\n            /* \"#utility.yul\":8334:9221   */\n        tag_143:\n          pop\n            /* \"#utility.yul\":7924:9227   */\n          pop\n          pop\n          pop\n            /* \"#utility.yul\":7832:9227   */\n          pop\n          pop\n          jump\t// out\n            /* \"campain.sol\":807:1621  contract Campaign{... */\n        tag_10:\n          dataSize(sub_0)\n          dup1\n          dataOffset(sub_0)\n          0x00\n          codecopy\n          0x00\n          return\n        stop\n\n        sub_0: assembly {\n                /* \"campain.sol\":807:1621  contract Campaign{... */\n              mstore(0x40, 0x80)\n              jumpi(tag_1, lt(calldatasize, 0x04))\n              shr(0xe0, calldataload(0x00))\n              dup1\n              0xb87f0404\n              gt\n              tag_9\n              jumpi\n              dup1\n              0xb87f0404\n              eq\n              tag_5\n              jumpi\n              dup1\n              0xe5123aaa\n              eq\n              tag_6\n              jumpi\n              dup1\n              0xed88c68e\n              eq\n              tag_7\n              jumpi\n              dup1\n              0xfc15dcef\n              eq\n              tag_8\n              jumpi\n              jump(tag_1)\n            tag_9:\n              dup1\n              0x49721832\n              eq\n              tag_2\n              jumpi\n              dup1\n              0x9aa10ebf\n              eq\n              tag_3\n              jumpi\n              dup1\n              0xb4a99a4e\n              eq\n              tag_4\n              jumpi\n            tag_1:\n              revert(0x00, 0x00)\n                /* \"campain.sol\":906:927  uint public reqAmount */\n            tag_2:\n              callvalue\n              dup1\n              iszero\n              tag_10\n              jumpi\n              revert(0x00, 0x00)\n            tag_10:\n              pop\n              tag_11\n              tag_12\n              jump\t// in\n            tag_11:\n              mload(0x40)\n              tag_13\n              swap2\n              swap1\n              tag_14\n              jump\t// in\n            tag_13:\n              mload(0x40)\n              dup1\n              swap2\n              sub\n              swap1\n              return\n                /* \"campain.sol\":881:900  string public Story */\n            tag_3:\n              callvalue\n              dup1\n              iszero\n              tag_15\n              jumpi\n              revert(0x00, 0x00)\n            tag_15:\n              pop\n              tag_16\n              tag_17\n              jump\t// in\n            tag_16:\n              mload(0x40)\n              tag_18\n              swap2\n              swap1\n              tag_19\n              jump\t// in\n            tag_18:\n              mload(0x40)\n              dup1\n              swap2\n              sub\n              swap1\n              return\n                /* \"campain.sol\":960:988  address payable public Owner */\n            tag_4:\n              callvalue\n              dup1\n              iszero\n              tag_20\n              jumpi\n              revert(0x00, 0x00)\n            tag_20:\n              pop\n              tag_21\n              tag_22\n              jump\t// in\n            tag_21:\n              mload(0x40)\n              tag_23\n              swap2\n              swap1\n              tag_24\n              jump\t// in\n            tag_23:\n              mload(0x40)\n              dup1\n              swap2\n              sub\n              swap1\n              return\n                /* \"campain.sol\":830:850  string public  Title */\n            tag_5:\n              callvalue\n              dup1\n              iszero\n              tag_25\n              jumpi\n              revert(0x00, 0x00)\n            tag_25:\n              pop\n              tag_26\n              tag_27\n              jump\t// in\n            tag_26:\n              mload(0x40)\n              tag_28\n              swap2\n              swap1\n              tag_19\n              jump\t// in\n            tag_28:\n              mload(0x40)\n              dup1\n              swap2\n              sub\n              swap1\n              return\n                /* \"campain.sol\":856:875  string public Image */\n            tag_6:\n              callvalue\n              dup1\n              iszero\n              tag_29\n              jumpi\n              revert(0x00, 0x00)\n            tag_29:\n              pop\n              tag_30\n              tag_31\n              jump\t// in\n            tag_30:\n              mload(0x40)\n              tag_32\n              swap2\n              swap1\n              tag_19\n              jump\t// in\n            tag_32:\n              mload(0x40)\n              dup1\n              swap2\n              sub\n              swap1\n              return\n                /* \"campain.sol\":1370:1614  function donate() public payable {... */\n            tag_7:\n              tag_33\n              tag_34\n              jump\t// in\n            tag_33:\n              stop\n                /* \"campain.sol\":933:954  uint public resAmount */\n            tag_8:\n              callvalue\n              dup1\n              iszero\n              tag_35\n              jumpi\n              revert(0x00, 0x00)\n            tag_35:\n              pop\n              tag_36\n              tag_37\n              jump\t// in\n            tag_36:\n              mload(0x40)\n              tag_38\n              swap2\n              swap1\n              tag_14\n              jump\t// in\n            tag_38:\n              mload(0x40)\n              dup1\n              swap2\n              sub\n              swap1\n              return\n                /* \"campain.sol\":906:927  uint public reqAmount */\n            tag_12:\n              sload(0x03)\n              dup2\n              jump\t// out\n                /* \"campain.sol\":881:900  string public Story */\n            tag_17:\n              0x02\n              dup1\n              sload\n              tag_39\n              swap1\n              tag_40\n              jump\t// in\n            tag_39:\n              dup1\n              0x1f\n              add\n              0x20\n              dup1\n              swap2\n              div\n              mul\n              0x20\n              add\n              mload(0x40)\n              swap1\n              dup2\n              add\n              0x40\n              mstore\n              dup1\n              swap3\n              swap2\n              swap1\n              dup2\n              dup2\n              mstore\n              0x20\n              add\n              dup3\n              dup1\n              sload\n              tag_41\n              swap1\n              tag_40\n              jump\t// in\n            tag_41:\n              dup1\n              iszero\n              tag_42\n              jumpi\n              dup1\n              0x1f\n              lt\n              tag_43\n              jumpi\n              0x0100\n              dup1\n              dup4\n              sload\n              div\n              mul\n              dup4\n              mstore\n              swap2\n              0x20\n              add\n              swap2\n              jump(tag_42)\n            tag_43:\n              dup3\n              add\n              swap2\n              swap1\n              0x00\n              mstore\n              keccak256(0x00, 0x20)\n              swap1\n            tag_44:\n              dup2\n              sload\n              dup2\n              mstore\n              swap1\n              0x01\n              add\n              swap1\n              0x20\n              add\n              dup1\n              dup4\n              gt\n              tag_44\n              jumpi\n              dup3\n              swap1\n              sub\n              0x1f\n              and\n              dup3\n              add\n              swap2\n            tag_42:\n              pop\n              pop\n              pop\n              pop\n              pop\n              dup2\n              jump\t// out\n                /* \"campain.sol\":960:988  address payable public Owner */\n            tag_22:\n              0x05\n              0x00\n              swap1\n              sload\n              swap1\n              0x0100\n              exp\n              swap1\n              div\n              0xffffffffffffffffffffffffffffffffffffffff\n              and\n              dup2\n              jump\t// out\n                /* \"campain.sol\":830:850  string public  Title */\n            tag_27:\n              0x00\n              dup1\n              sload\n              tag_45\n              swap1\n              tag_40\n              jump\t// in\n            tag_45:\n              dup1\n              0x1f\n              add\n              0x20\n              dup1\n              swap2\n              div\n              mul\n              0x20\n              add\n              mload(0x40)\n              swap1\n              dup2\n              add\n              0x40\n              mstore\n              dup1\n              swap3\n              swap2\n              swap1\n              dup2\n              dup2\n              mstore\n              0x20\n              add\n              dup3\n              dup1\n              sload\n              tag_46\n              swap1\n              tag_40\n              jump\t// in\n            tag_46:\n              dup1\n              iszero\n              tag_47\n              jumpi\n              dup1\n              0x1f\n              lt\n              tag_48\n              jumpi\n              0x0100\n              dup1\n              dup4\n              sload\n              div\n              mul\n              dup4\n              mstore\n              swap2\n              0x20\n              add\n              swap2\n              jump(tag_47)\n            tag_48:\n              dup3\n              add\n              swap2\n              swap1\n              0x00\n              mstore\n              keccak256(0x00, 0x20)\n              swap1\n            tag_49:\n              dup2\n              sload\n              dup2\n              mstore\n              swap1\n              0x01\n              add\n              swap1\n              0x20\n              add\n              dup1\n              dup4\n              gt\n              tag_49\n              jumpi\n              dup3\n              swap1\n              sub\n              0x1f\n              and\n              dup3\n              add\n              swap2\n            tag_47:\n              pop\n              pop\n              pop\n              pop\n              pop\n              dup2\n              jump\t// out\n                /* \"campain.sol\":856:875  string public Image */\n            tag_31:\n              0x01\n              dup1\n              sload\n              tag_50\n              swap1\n              tag_40\n              jump\t// in\n            tag_50:\n              dup1\n              0x1f\n              add\n              0x20\n              dup1\n              swap2\n              div\n              mul\n              0x20\n              add\n              mload(0x40)\n              swap1\n              dup2\n              add\n              0x40\n              mstore\n              dup1\n              swap3\n              swap2\n              swap1\n              dup2\n              dup2\n              mstore\n              0x20\n              add\n              dup3\n              dup1\n              sload\n              tag_51\n              swap1\n              tag_40\n              jump\t// in\n            tag_51:\n              dup1\n              iszero\n              tag_52\n              jumpi\n              dup1\n              0x1f\n              lt\n              tag_53\n              jumpi\n              0x0100\n              dup1\n              dup4\n              sload\n              div\n              mul\n              dup4\n              mstore\n              swap2\n              0x20\n              add\n              swap2\n              jump(tag_52)\n            tag_53:\n              dup3\n              add\n              swap2\n              swap1\n              0x00\n              mstore\n              keccak256(0x00, 0x20)\n              swap1\n            tag_54:\n              dup2\n              sload\n              dup2\n              mstore\n              swap1\n              0x01\n              add\n              swap1\n              0x20\n              add\n              dup1\n              dup4\n              gt\n              tag_54\n              jumpi\n              dup3\n              swap1\n              sub\n              0x1f\n              and\n              dup3\n              add\n              swap2\n            tag_52:\n              pop\n              pop\n              pop\n              pop\n              pop\n              dup2\n              jump\t// out\n                /* \"campain.sol\":1370:1614  function donate() public payable {... */\n            tag_34:\n                /* \"campain.sol\":1431:1440  resAmount */\n              sload(0x04)\n                /* \"campain.sol\":1421:1430  reqAmount */\n              sload(0x03)\n                /* \"campain.sol\":1421:1440  reqAmount>resAmount */\n              gt\n                /* \"campain.sol\":1413:1478  require(reqAmount>resAmount, \"required amount is fullfilled !!!\") */\n              tag_56\n              jumpi\n              mload(0x40)\n              0x08c379a000000000000000000000000000000000000000000000000000000000\n              dup2\n              mstore\n              0x04\n              add\n              tag_57\n              swap1\n              tag_58\n              jump\t// in\n            tag_57:\n              mload(0x40)\n              dup1\n              swap2\n              sub\n              swap1\n              revert\n            tag_56:\n                /* \"campain.sol\":1488:1493  Owner */\n              0x05\n              0x00\n              swap1\n              sload\n              swap1\n              0x0100\n              exp\n              swap1\n              div\n              0xffffffffffffffffffffffffffffffffffffffff\n              and\n                /* \"campain.sol\":1488:1502  Owner.transfer */\n              0xffffffffffffffffffffffffffffffffffffffff\n              and\n                /* \"campain.sol\":1488:1513  Owner.transfer(msg.value) */\n              0x08fc\n                /* \"campain.sol\":1503:1512  msg.value */\n              callvalue\n                /* \"campain.sol\":1488:1513  Owner.transfer(msg.value) */\n              swap1\n              dup2\n              iszero\n              mul\n              swap1\n              mload(0x40)\n              0x00\n              mload(0x40)\n              dup1\n              dup4\n              sub\n              dup2\n              dup6\n              dup9\n              dup9\n              call\n              swap4\n              pop\n              pop\n              pop\n              pop\n              iszero\n              dup1\n              iszero\n              tag_60\n              jumpi\n              returndatacopy(0x00, 0x00, returndatasize)\n              revert(0x00, returndatasize)\n            tag_60:\n              pop\n                /* \"campain.sol\":1536:1545  msg.value */\n              callvalue\n                /* \"campain.sol\":1523:1532  resAmount */\n              0x04\n              0x00\n                /* \"campain.sol\":1523:1545  resAmount += msg.value */\n              dup3\n              dup3\n              sload\n              tag_61\n              swap2\n              swap1\n              tag_62\n              jump\t// in\n            tag_61:\n              swap3\n              pop\n              pop\n              dup2\n              swap1\n              sstore\n              pop\n                /* \"campain.sol\":1591:1606  block.timestamp */\n              timestamp\n                /* \"campain.sol\":1580:1589  msg.value */\n              callvalue\n                /* \"campain.sol\":1568:1578  msg.sender */\n              caller\n                /* \"campain.sol\":1560:1607  donated(msg.sender, msg.value, block.timestamp) */\n              0xffffffffffffffffffffffffffffffffffffffff\n              and\n              0xe6add99d06d9ad7fc456e746aa162eed6211c5002ef2dacdd67b8d2016822fba\n              mload(0x40)\n              mload(0x40)\n              dup1\n              swap2\n              sub\n              swap1\n              log4\n                /* \"campain.sol\":1370:1614  function donate() public payable {... */\n              jump\t// out\n                /* \"campain.sol\":933:954  uint public resAmount */\n            tag_37:\n              sload(0x04)\n              dup2\n              jump\t// out\n                /* \"#utility.yul\":7:84   */\n            tag_63:\n                /* \"#utility.yul\":44:51   */\n              0x00\n                /* \"#utility.yul\":73:78   */\n              dup2\n                /* \"#utility.yul\":62:78   */\n              swap1\n              pop\n                /* \"#utility.yul\":7:84   */\n              swap2\n              swap1\n              pop\n              jump\t// out\n                /* \"#utility.yul\":90:208   */\n            tag_64:\n                /* \"#utility.yul\":177:201   */\n              tag_80\n                /* \"#utility.yul\":195:200   */\n              dup2\n                /* \"#utility.yul\":177:201   */\n              tag_63\n              jump\t// in\n            tag_80:\n                /* \"#utility.yul\":172:175   */\n              dup3\n                /* \"#utility.yul\":165:202   */\n              mstore\n                /* \"#utility.yul\":90:208   */\n              pop\n              pop\n              jump\t// out\n                /* \"#utility.yul\":214:436   */\n            tag_14:\n                /* \"#utility.yul\":307:311   */\n              0x00\n                /* \"#utility.yul\":345:347   */\n              0x20\n                /* \"#utility.yul\":334:343   */\n              dup3\n                /* \"#utility.yul\":330:348   */\n              add\n                /* \"#utility.yul\":322:348   */\n              swap1\n              pop\n                /* \"#utility.yul\":358:429   */\n              tag_82\n                /* \"#utility.yul\":426:427   */\n              0x00\n                /* \"#utility.yul\":415:424   */\n              dup4\n                /* \"#utility.yul\":411:428   */\n              add\n                /* \"#utility.yul\":402:408   */\n              dup5\n                /* \"#utility.yul\":358:429   */\n              tag_64\n              jump\t// in\n            tag_82:\n                /* \"#utility.yul\":214:436   */\n              swap3\n              swap2\n              pop\n              pop\n              jump\t// out\n                /* \"#utility.yul\":442:541   */\n            tag_65:\n                /* \"#utility.yul\":494:500   */\n              0x00\n                /* \"#utility.yul\":528:533   */\n              dup2\n                /* \"#utility.yul\":522:534   */\n              mload\n                /* \"#utility.yul\":512:534   */\n              swap1\n              pop\n                /* \"#utility.yul\":442:541   */\n              swap2\n              swap1\n              pop\n              jump\t// out\n                /* \"#utility.yul\":547:716   */\n            tag_66:\n                /* \"#utility.yul\":631:642   */\n              0x00\n                /* \"#utility.yul\":665:671   */\n              dup3\n                /* \"#utility.yul\":660:663   */\n              dup3\n                /* \"#utility.yul\":653:672   */\n              mstore\n                /* \"#utility.yul\":705:709   */\n              0x20\n                /* \"#utility.yul\":700:703   */\n              dup3\n                /* \"#utility.yul\":696:710   */\n              add\n                /* \"#utility.yul\":681:710   */\n              swap1\n              pop\n                /* \"#utility.yul\":547:716   */\n              swap3\n              swap2\n              pop\n              pop\n              jump\t// out\n                /* \"#utility.yul\":722:861   */\n            tag_67:\n                /* \"#utility.yul\":811:817   */\n              dup3\n                /* \"#utility.yul\":806:809   */\n              dup2\n                /* \"#utility.yul\":801:804   */\n              dup4\n                /* \"#utility.yul\":795:818   */\n              mcopy\n                /* \"#utility.yul\":852:853   */\n              0x00\n                /* \"#utility.yul\":843:849   */\n              dup4\n                /* \"#utility.yul\":838:841   */\n              dup4\n                /* \"#utility.yul\":834:850   */\n              add\n                /* \"#utility.yul\":827:854   */\n              mstore\n                /* \"#utility.yul\":722:861   */\n              pop\n              pop\n              pop\n              jump\t// out\n                /* \"#utility.yul\":867:969   */\n            tag_68:\n                /* \"#utility.yul\":908:914   */\n              0x00\n                /* \"#utility.yul\":959:961   */\n              0x1f\n                /* \"#utility.yul\":955:962   */\n              not\n                /* \"#utility.yul\":950:952   */\n              0x1f\n                /* \"#utility.yul\":943:948   */\n              dup4\n                /* \"#utility.yul\":939:953   */\n              add\n                /* \"#utility.yul\":935:963   */\n              and\n                /* \"#utility.yul\":925:963   */\n              swap1\n              pop\n                /* \"#utility.yul\":867:969   */\n              swap2\n              swap1\n              pop\n              jump\t// out\n                /* \"#utility.yul\":975:1352   */\n            tag_69:\n                /* \"#utility.yul\":1063:1066   */\n              0x00\n                /* \"#utility.yul\":1091:1130   */\n              tag_88\n                /* \"#utility.yul\":1124:1129   */\n              dup3\n                /* \"#utility.yul\":1091:1130   */\n              tag_65\n              jump\t// in\n            tag_88:\n                /* \"#utility.yul\":1146:1217   */\n              tag_89\n                /* \"#utility.yul\":1210:1216   */\n              dup2\n                /* \"#utility.yul\":1205:1208   */\n              dup6\n                /* \"#utility.yul\":1146:1217   */\n              tag_66\n              jump\t// in\n            tag_89:\n                /* \"#utility.yul\":1139:1217   */\n              swap4\n              pop\n                /* \"#utility.yul\":1226:1291   */\n              tag_90\n                /* \"#utility.yul\":1284:1290   */\n              dup2\n                /* \"#utility.yul\":1279:1282   */\n              dup6\n                /* \"#utility.yul\":1272:1276   */\n              0x20\n                /* \"#utility.yul\":1265:1270   */\n              dup7\n                /* \"#utility.yul\":1261:1277   */\n              add\n                /* \"#utility.yul\":1226:1291   */\n              tag_67\n              jump\t// in\n            tag_90:\n                /* \"#utility.yul\":1316:1345   */\n              tag_91\n                /* \"#utility.yul\":1338:1344   */\n              dup2\n                /* \"#utility.yul\":1316:1345   */\n              tag_68\n              jump\t// in\n            tag_91:\n                /* \"#utility.yul\":1311:1314   */\n              dup5\n                /* \"#utility.yul\":1307:1346   */\n              add\n                /* \"#utility.yul\":1300:1346   */\n              swap2\n              pop\n                /* \"#utility.yul\":1067:1352   */\n              pop\n                /* \"#utility.yul\":975:1352   */\n              swap3\n              swap2\n              pop\n              pop\n              jump\t// out\n                /* \"#utility.yul\":1358:1671   */\n            tag_19:\n                /* \"#utility.yul\":1471:1475   */\n              0x00\n                /* \"#utility.yul\":1509:1511   */\n              0x20\n                /* \"#utility.yul\":1498:1507   */\n              dup3\n                /* \"#utility.yul\":1494:1512   */\n              add\n                /* \"#utility.yul\":1486:1512   */\n              swap1\n              pop\n                /* \"#utility.yul\":1558:1567   */\n              dup2\n                /* \"#utility.yul\":1552:1556   */\n              dup2\n                /* \"#utility.yul\":1548:1568   */\n              sub\n                /* \"#utility.yul\":1544:1545   */\n              0x00\n                /* \"#utility.yul\":1533:1542   */\n              dup4\n                /* \"#utility.yul\":1529:1546   */\n              add\n                /* \"#utility.yul\":1522:1569   */\n              mstore\n                /* \"#utility.yul\":1586:1664   */\n              tag_93\n                /* \"#utility.yul\":1659:1663   */\n              dup2\n                /* \"#utility.yul\":1650:1656   */\n              dup5\n                /* \"#utility.yul\":1586:1664   */\n              tag_69\n              jump\t// in\n            tag_93:\n                /* \"#utility.yul\":1578:1664   */\n              swap1\n              pop\n                /* \"#utility.yul\":1358:1671   */\n              swap3\n              swap2\n              pop\n              pop\n              jump\t// out\n                /* \"#utility.yul\":1677:1803   */\n            tag_70:\n                /* \"#utility.yul\":1714:1721   */\n              0x00\n                /* \"#utility.yul\":1754:1796   */\n              0xffffffffffffffffffffffffffffffffffffffff\n                /* \"#utility.yul\":1747:1752   */\n              dup3\n                /* \"#utility.yul\":1743:1797   */\n              and\n                /* \"#utility.yul\":1732:1797   */\n              swap1\n              pop\n                /* \"#utility.yul\":1677:1803   */\n              swap2\n              swap1\n              pop\n              jump\t// out\n                /* \"#utility.yul\":1809:1913   */\n            tag_71:\n                /* \"#utility.yul\":1854:1861   */\n              0x00\n                /* \"#utility.yul\":1883:1907   */\n              tag_96\n                /* \"#utility.yul\":1901:1906   */\n              dup3\n                /* \"#utility.yul\":1883:1907   */\n              tag_70\n              jump\t// in\n            tag_96:\n                /* \"#utility.yul\":1872:1907   */\n              swap1\n              pop\n                /* \"#utility.yul\":1809:1913   */\n              swap2\n              swap1\n              pop\n              jump\t// out\n                /* \"#utility.yul\":1919:2061   */\n            tag_72:\n                /* \"#utility.yul\":2022:2054   */\n              tag_98\n                /* \"#utility.yul\":2048:2053   */\n              dup2\n                /* \"#utility.yul\":2022:2054   */\n              tag_71\n              jump\t// in\n            tag_98:\n                /* \"#utility.yul\":2017:2020   */\n              dup3\n                /* \"#utility.yul\":2010:2055   */\n              mstore\n                /* \"#utility.yul\":1919:2061   */\n              pop\n              pop\n              jump\t// out\n                /* \"#utility.yul\":2067:2321   */\n            tag_24:\n                /* \"#utility.yul\":2176:2180   */\n              0x00\n                /* \"#utility.yul\":2214:2216   */\n              0x20\n                /* \"#utility.yul\":2203:2212   */\n              dup3\n                /* \"#utility.yul\":2199:2217   */\n              add\n                /* \"#utility.yul\":2191:2217   */\n              swap1\n              pop\n                /* \"#utility.yul\":2227:2314   */\n              tag_100\n                /* \"#utility.yul\":2311:2312   */\n              0x00\n                /* \"#utility.yul\":2300:2309   */\n              dup4\n                /* \"#utility.yul\":2296:2313   */\n              add\n                /* \"#utility.yul\":2287:2293   */\n              dup5\n                /* \"#utility.yul\":2227:2314   */\n              tag_72\n              jump\t// in\n            tag_100:\n                /* \"#utility.yul\":2067:2321   */\n              swap3\n              swap2\n              pop\n              pop\n              jump\t// out\n                /* \"#utility.yul\":2327:2507   */\n            tag_73:\n                /* \"#utility.yul\":2375:2452   */\n              0x4e487b7100000000000000000000000000000000000000000000000000000000\n                /* \"#utility.yul\":2372:2373   */\n              0x00\n                /* \"#utility.yul\":2365:2453   */\n              mstore\n                /* \"#utility.yul\":2472:2476   */\n              0x22\n                /* \"#utility.yul\":2469:2470   */\n              0x04\n                /* \"#utility.yul\":2462:2477   */\n              mstore\n                /* \"#utility.yul\":2496:2500   */\n              0x24\n                /* \"#utility.yul\":2493:2494   */\n              0x00\n                /* \"#utility.yul\":2486:2501   */\n              revert\n                /* \"#utility.yul\":2513:2833   */\n            tag_40:\n                /* \"#utility.yul\":2557:2563   */\n              0x00\n                /* \"#utility.yul\":2594:2595   */\n              0x02\n                /* \"#utility.yul\":2588:2592   */\n              dup3\n                /* \"#utility.yul\":2584:2596   */\n              div\n                /* \"#utility.yul\":2574:2596   */\n              swap1\n              pop\n                /* \"#utility.yul\":2641:2642   */\n              0x01\n                /* \"#utility.yul\":2635:2639   */\n              dup3\n                /* \"#utility.yul\":2631:2643   */\n              and\n                /* \"#utility.yul\":2662:2680   */\n              dup1\n                /* \"#utility.yul\":2652:2733   */\n              tag_103\n              jumpi\n                /* \"#utility.yul\":2718:2722   */\n              0x7f\n                /* \"#utility.yul\":2710:2716   */\n              dup3\n                /* \"#utility.yul\":2706:2723   */\n              and\n                /* \"#utility.yul\":2696:2723   */\n              swap2\n              pop\n                /* \"#utility.yul\":2652:2733   */\n            tag_103:\n                /* \"#utility.yul\":2780:2782   */\n              0x20\n                /* \"#utility.yul\":2772:2778   */\n              dup3\n                /* \"#utility.yul\":2769:2783   */\n              lt\n                /* \"#utility.yul\":2749:2767   */\n              dup2\n                /* \"#utility.yul\":2746:2784   */\n              sub\n                /* \"#utility.yul\":2743:2827   */\n              tag_104\n              jumpi\n                /* \"#utility.yul\":2799:2817   */\n              tag_105\n              tag_73\n              jump\t// in\n            tag_105:\n                /* \"#utility.yul\":2743:2827   */\n            tag_104:\n                /* \"#utility.yul\":2564:2833   */\n              pop\n                /* \"#utility.yul\":2513:2833   */\n              swap2\n              swap1\n              pop\n              jump\t// out\n                /* \"#utility.yul\":2839:3059   */\n            tag_74:\n                /* \"#utility.yul\":2979:3013   */\n              0x726571756972656420616d6f756e742069732066756c6c66696c6c6564202121\n                /* \"#utility.yul\":2975:2976   */\n              0x00\n                /* \"#utility.yul\":2967:2973   */\n              dup3\n                /* \"#utility.yul\":2963:2977   */\n              add\n                /* \"#utility.yul\":2956:3014   */\n              mstore\n                /* \"#utility.yul\":3048:3051   */\n              0x2100000000000000000000000000000000000000000000000000000000000000\n                /* \"#utility.yul\":3043:3045   */\n              0x20\n                /* \"#utility.yul\":3035:3041   */\n              dup3\n                /* \"#utility.yul\":3031:3046   */\n              add\n                /* \"#utility.yul\":3024:3052   */\n              mstore\n                /* \"#utility.yul\":2839:3059   */\n              pop\n              jump\t// out\n                /* \"#utility.yul\":3065:3431   */\n            tag_75:\n                /* \"#utility.yul\":3207:3210   */\n              0x00\n                /* \"#utility.yul\":3228:3295   */\n              tag_108\n                /* \"#utility.yul\":3292:3294   */\n              0x21\n                /* \"#utility.yul\":3287:3290   */\n              dup4\n                /* \"#utility.yul\":3228:3295   */\n              tag_66\n              jump\t// in\n            tag_108:\n                /* \"#utility.yul\":3221:3295   */\n              swap2\n              pop\n                /* \"#utility.yul\":3304:3397   */\n              tag_109\n                /* \"#utility.yul\":3393:3396   */\n              dup3\n                /* \"#utility.yul\":3304:3397   */\n              tag_74\n              jump\t// in\n            tag_109:\n                /* \"#utility.yul\":3422:3424   */\n              0x40\n                /* \"#utility.yul\":3417:3420   */\n              dup3\n                /* \"#utility.yul\":3413:3425   */\n              add\n                /* \"#utility.yul\":3406:3425   */\n              swap1\n              pop\n                /* \"#utility.yul\":3065:3431   */\n              swap2\n              swap1\n              pop\n              jump\t// out\n                /* \"#utility.yul\":3437:3856   */\n            tag_58:\n                /* \"#utility.yul\":3603:3607   */\n              0x00\n                /* \"#utility.yul\":3641:3643   */\n              0x20\n                /* \"#utility.yul\":3630:3639   */\n              dup3\n                /* \"#utility.yul\":3626:3644   */\n              add\n                /* \"#utility.yul\":3618:3644   */\n              swap1\n              pop\n                /* \"#utility.yul\":3690:3699   */\n              dup2\n                /* \"#utility.yul\":3684:3688   */\n              dup2\n                /* \"#utility.yul\":3680:3700   */\n              sub\n                /* \"#utility.yul\":3676:3677   */\n              0x00\n                /* \"#utility.yul\":3665:3674   */\n              dup4\n                /* \"#utility.yul\":3661:3678   */\n              add\n                /* \"#utility.yul\":3654:3701   */\n              mstore\n                /* \"#utility.yul\":3718:3849   */\n              tag_111\n                /* \"#utility.yul\":3844:3848   */\n              dup2\n                /* \"#utility.yul\":3718:3849   */\n              tag_75\n              jump\t// in\n            tag_111:\n                /* \"#utility.yul\":3710:3849   */\n              swap1\n              pop\n                /* \"#utility.yul\":3437:3856   */\n              swap2\n              swap1\n              pop\n              jump\t// out\n                /* \"#utility.yul\":3862:4042   */\n            tag_76:\n                /* \"#utility.yul\":3910:3987   */\n              0x4e487b7100000000000000000000000000000000000000000000000000000000\n                /* \"#utility.yul\":3907:3908   */\n              0x00\n                /* \"#utility.yul\":3900:3988   */\n              mstore\n                /* \"#utility.yul\":4007:4011   */\n              0x11\n                /* \"#utility.yul\":4004:4005   */\n              0x04\n                /* \"#utility.yul\":3997:4012   */\n              mstore\n                /* \"#utility.yul\":4031:4035   */\n              0x24\n                /* \"#utility.yul\":4028:4029   */\n              0x00\n                /* \"#utility.yul\":4021:4036   */\n              revert\n                /* \"#utility.yul\":4048:4239   */\n            tag_62:\n                /* \"#utility.yul\":4088:4091   */\n              0x00\n                /* \"#utility.yul\":4107:4127   */\n              tag_114\n                /* \"#utility.yul\":4125:4126   */\n              dup3\n                /* \"#utility.yul\":4107:4127   */\n              tag_63\n              jump\t// in\n            tag_114:\n                /* \"#utility.yul\":4102:4127   */\n              swap2\n              pop\n                /* \"#utility.yul\":4141:4161   */\n              tag_115\n                /* \"#utility.yul\":4159:4160   */\n              dup4\n                /* \"#utility.yul\":4141:4161   */\n              tag_63\n              jump\t// in\n            tag_115:\n                /* \"#utility.yul\":4136:4161   */\n              swap3\n              pop\n                /* \"#utility.yul\":4184:4185   */\n              dup3\n                /* \"#utility.yul\":4181:4182   */\n              dup3\n                /* \"#utility.yul\":4177:4186   */\n              add\n                /* \"#utility.yul\":4170:4186   */\n              swap1\n              pop\n                /* \"#utility.yul\":4205:4208   */\n              dup1\n                /* \"#utility.yul\":4202:4203   */\n              dup3\n                /* \"#utility.yul\":4199:4209   */\n              gt\n                /* \"#utility.yul\":4196:4232   */\n              iszero\n              tag_116\n              jumpi\n                /* \"#utility.yul\":4212:4230   */\n              tag_117\n              tag_76\n              jump\t// in\n            tag_117:\n                /* \"#utility.yul\":4196:4232   */\n            tag_116:\n                /* \"#utility.yul\":4048:4239   */\n              swap3\n              swap2\n              pop\n              pop\n              jump\t// out\n\n            auxdata: 0xa2646970667358221220a2c9b43f2cc8e3fe80f0eae974596f4f5d2cdba89596c8188a019ee01525e9f864736f6c634300081e0033\n        }\n    }\n\n    auxdata: 0xa26469706673582212200fd3de2ed30f523f66bd0d4ff2e61dfa3cdd0fc0a6e063d277771af7158ba66c64736f6c634300081e0033\n}\n",
				"bytecode": {
					"linkReferences": {},
					"object": "6080604052348015600e575f5ffd5b5061131b8061001c5f395ff3fe608060405234801561000f575f5ffd5b5060043610610034575f3560e01c806315b40ec014610038578063468f4f8914610068575b5f5ffd5b610052600480360381019061004d919061021b565b610084565b60405161005f9190610285565b60405180910390f35b610082600480360381019061007d91906103da565b6100be565b005b5f8181548110610092575f80fd5b905f5260205f20015f915054906101000a900473ffffffffffffffffffffffffffffffffffffffff1681565b5f858584846040516100cf906101ca565b6100dc9493929190610530565b604051809103905ff0801580156100f5573d5f5f3e3d5ffd5b5090505f81908060018154018082558091505060019003905f5260205f20015f9091909190916101000a81548173ffffffffffffffffffffffffffffffffffffffff021916908373ffffffffffffffffffffffffffffffffffffffff1602179055508360405161016591906105c2565b6040518091039020423373ffffffffffffffffffffffffffffffffffffffff167f2a15e8182e5afe1f8145c338707fde0fd0e872200e52a393f86c1fba47db6d37898987876040516101ba94939291906105d8565b60405180910390a4505050505050565b610cbc8061062a83390190565b5f604051905090565b5f5ffd5b5f5ffd5b5f819050919050565b6101fa816101e8565b8114610204575f5ffd5b50565b5f81359050610215816101f1565b92915050565b5f602082840312156102305761022f6101e0565b5b5f61023d84828501610207565b91505092915050565b5f73ffffffffffffffffffffffffffffffffffffffff82169050919050565b5f61026f82610246565b9050919050565b61027f81610265565b82525050565b5f6020820190506102985f830184610276565b92915050565b5f5ffd5b5f5ffd5b5f601f19601f8301169050919050565b7f4e487b71000000000000000000000000000000000000000000000000000000005f52604160045260245ffd5b6102ec826102a6565b810181811067ffffffffffffffff8211171561030b5761030a6102b6565b5b80604052505050565b5f61031d6101d7565b905061032982826102e3565b919050565b5f67ffffffffffffffff821115610348576103476102b6565b5b610351826102a6565b9050602081019050919050565b828183375f83830152505050565b5f61037e6103798461032e565b610314565b90508281526020810184848401111561039a576103996102a2565b5b6103a584828561035e565b509392505050565b5f82601f8301126103c1576103c061029e565b5b81356103d184826020860161036c565b91505092915050565b5f5f5f5f5f60a086880312156103f3576103f26101e0565b5b5f86013567ffffffffffffffff8111156104105761040f6101e4565b5b61041c888289016103ad565b955050602086013567ffffffffffffffff81111561043d5761043c6101e4565b5b610449888289016103ad565b945050604086013567ffffffffffffffff81111561046a576104696101e4565b5b610476888289016103ad565b935050606086013567ffffffffffffffff811115610497576104966101e4565b5b6104a3888289016103ad565b92505060806104b488828901610207565b9150509295509295909350565b5f81519050919050565b5f82825260208201905092915050565b8281835e5f83830152505050565b5f6104f3826104c1565b6104fd81856104cb565b935061050d8185602086016104db565b610516816102a6565b840191505092915050565b61052a816101e8565b82525050565b5f6080820190508181035f83015261054881876104e9565b9050818103602083015261055c81866104e9565b9050818103604083015261057081856104e9565b905061057f6060830184610521565b95945050505050565b5f81905092915050565b5f61059c826104c1565b6105a68185610588565b93506105b68185602086016104db565b80840191505092915050565b5f6105cd8284610592565b915081905092915050565b5f6080820190508181035f8301526105f081876104e9565b9050818103602083015261060481866104e9565b90506106136040830185610521565b6106206060830184610276565b9594505050505056fe608060405234801561000f575f5ffd5b50604051610cbc380380610cbc83398181016040528101906100319190610230565b835f908161003f91906104ef565b50826001908161004f91906104ef565b50816002908161005f91906104ef565b50806003819055503360055f6101000a81548173ffffffffffffffffffffffffffffffffffffffff021916908373ffffffffffffffffffffffffffffffffffffffff160217905550505050506105be565b5f604051905090565b5f5ffd5b5f5ffd5b5f5ffd5b5f5ffd5b5f601f19601f8301169050919050565b7f4e487b71000000000000000000000000000000000000000000000000000000005f52604160045260245ffd5b61010f826100c9565b810181811067ffffffffffffffff8211171561012e5761012d6100d9565b5b80604052505050565b5f6101406100b0565b905061014c8282610106565b919050565b5f67ffffffffffffffff82111561016b5761016a6100d9565b5b610174826100c9565b9050602081019050919050565b8281835e5f83830152505050565b5f6101a161019c84610151565b610137565b9050828152602081018484840111156101bd576101bc6100c5565b5b6101c8848285610181565b509392505050565b5f82601f8301126101e4576101e36100c1565b5b81516101f484826020860161018f565b91505092915050565b5f819050919050565b61020f816101fd565b8114610219575f5ffd5b50565b5f8151905061022a81610206565b92915050565b5f5f5f5f60808587031215610248576102476100b9565b5b5f85015167ffffffffffffffff811115610265576102646100bd565b5b610271878288016101d0565b945050602085015167ffffffffffffffff811115610292576102916100bd565b5b61029e878288016101d0565b935050604085015167ffffffffffffffff8111156102bf576102be6100bd565b5b6102cb878288016101d0565b92505060606102dc8782880161021c565b91505092959194509250565b5f81519050919050565b7f4e487b71000000000000000000000000000000000000000000000000000000005f52602260045260245ffd5b5f600282049050600182168061033657607f821691505b602082108103610349576103486102f2565b5b50919050565b5f819050815f5260205f209050919050565b5f6020601f8301049050919050565b5f82821b905092915050565b5f600883026103ab7fffffffffffffffffffffffffffffffffffffffffffffffffffffffffffffffff82610370565b6103b58683610370565b95508019841693508086168417925050509392505050565b5f819050919050565b5f6103f06103eb6103e6846101fd565b6103cd565b6101fd565b9050919050565b5f819050919050565b610409836103d6565b61041d610415826103f7565b84845461037c565b825550505050565b5f5f905090565b610434610425565b61043f818484610400565b505050565b5b81811015610462576104575f8261042c565b600181019050610445565b5050565b601f8211156104a7576104788161034f565b61048184610361565b81016020851015610490578190505b6104a461049c85610361565b830182610444565b50505b505050565b5f82821c905092915050565b5f6104c75f19846008026104ac565b1980831691505092915050565b5f6104df83836104b8565b9150826002028217905092915050565b6104f8826102e8565b67ffffffffffffffff811115610511576105106100d9565b5b61051b825461031f565b610526828285610466565b5f60209050601f831160018114610557575f8415610545578287015190505b61054f85826104d4565b8655506105b6565b601f1984166105658661034f565b5f5b8281101561058c57848901518255600182019150602085019450602081019050610567565b868310156105a957848901516105a5601f8916826104b8565b8355505b6001600288020188555050505b505050505050565b6106f1806105cb5f395ff3fe60806040526004361061006f575f3560e01c8063b87f04041161004d578063b87f0404146100f1578063e5123aaa1461011b578063ed88c68e14610145578063fc15dcef1461014f5761006f565b806349721832146100735780639aa10ebf1461009d578063b4a99a4e146100c7575b5f5ffd5b34801561007e575f5ffd5b50610087610179565b604051610094919061046f565b60405180910390f35b3480156100a8575f5ffd5b506100b161017f565b6040516100be91906104f8565b60405180910390f35b3480156100d2575f5ffd5b506100db61020b565b6040516100e89190610557565b60405180910390f35b3480156100fc575f5ffd5b50610105610230565b60405161011291906104f8565b60405180910390f35b348015610126575f5ffd5b5061012f6102bb565b60405161013c91906104f8565b60405180910390f35b61014d610347565b005b34801561015a575f5ffd5b50610163610451565b604051610170919061046f565b60405180910390f35b60035481565b6002805461018c9061059d565b80601f01602080910402602001604051908101604052809291908181526020018280546101b89061059d565b80156102035780601f106101da57610100808354040283529160200191610203565b820191905f5260205f20905b8154815290600101906020018083116101e657829003601f168201915b505050505081565b60055f9054906101000a900473ffffffffffffffffffffffffffffffffffffffff1681565b5f805461023c9061059d565b80601f01602080910402602001604051908101604052809291908181526020018280546102689061059d565b80156102b35780601f1061028a576101008083540402835291602001916102b3565b820191905f5260205f20905b81548152906001019060200180831161029657829003601f168201915b505050505081565b600180546102c89061059d565b80601f01602080910402602001604051908101604052809291908181526020018280546102f49061059d565b801561033f5780601f106103165761010080835404028352916020019161033f565b820191905f5260205f20905b81548152906001019060200180831161032257829003601f168201915b505050505081565b6004546003541161038d576040517f08c379a00000000000000000000000000000000000000000000000000000000081526004016103849061063d565b60405180910390fd5b60055f9054906101000a900473ffffffffffffffffffffffffffffffffffffffff1673ffffffffffffffffffffffffffffffffffffffff166108fc3490811502906040515f60405180830381858888f193505050501580156103f1573d5f5f3e3d5ffd5b503460045f8282546104039190610688565b9250508190555042343373ffffffffffffffffffffffffffffffffffffffff167fe6add99d06d9ad7fc456e746aa162eed6211c5002ef2dacdd67b8d2016822fba60405160405180910390a4565b60045481565b5f819050919050565b61046981610457565b82525050565b5f6020820190506104825f830184610460565b92915050565b5f81519050919050565b5f82825260208201905092915050565b8281835e5f83830152505050565b5f601f19601f8301169050919050565b5f6104ca82610488565b6104d48185610492565b93506104e48185602086016104a2565b6104ed816104b0565b840191505092915050565b5f6020820190508181035f83015261051081846104c0565b905092915050565b5f73ffffffffffffffffffffffffffffffffffffffff82169050919050565b5f61054182610518565b9050919050565b61055181610537565b82525050565b5f60208201905061056a5f830184610548565b92915050565b7f4e487b71000000000000000000000000000000000000000000000000000000005f52602260045260245ffd5b5f60028204905060018216806105b457607f821691505b6020821081036105c7576105c6610570565b5b50919050565b7f726571756972656420616d6f756e742069732066756c6c66696c6c65642021215f8201527f2100000000000000000000000000000000000000000000000000000000000000602082015250565b5f610627602183610492565b9150610632826105cd565b604082019050919050565b5f6020820190508181035f8301526106548161061b565b9050919050565b7f4e487b71000000000000000000000000000000000000000000000000000000005f52601160045260245ffd5b5f61069282610457565b915061069d83610457565b92508282019050808211156106b5576106b461065b565b5b9291505056fea2646970667358221220a2c9b43f2cc8e3fe80f0eae974596f4f5d2cdba89596c8188a019ee01525e9f864736f6c634300081e0033a26469706673582212200fd3de2ed30f523f66bd0d4ff2e61dfa3cdd0fc0a6e063d277771af7158ba66c64736f6c634300081e0033",
					"opcodes": "PUSH1 0x80 PUSH1 0x40 MSTORE CALLVALUE DUP1 ISZERO PUSH1 0xE JUMPI PUSH0 PUSH0 REVERT JUMPDEST POP PUSH2 0x131B DUP1 PUSH2 0x1C PUSH0 CODECOPY PUSH0 RETURN INVALID PUSH1 0x80 PUSH1 0x40 MSTORE CALLVALUE DUP1 ISZERO PUSH2 0xF JUMPI PUSH0 PUSH0 REVERT JUMPDEST POP PUSH1 0x4 CALLDATASIZE LT PUSH2 0x34 JUMPI PUSH0 CALLDATALOAD PUSH1 0xE0 SHR DUP1 PUSH4 0x15B40EC0 EQ PUSH2 0x38 JUMPI DUP1 PUSH4 0x468F4F89 EQ PUSH2 0x68 JUMPI JUMPDEST PUSH0 PUSH0 REVERT JUMPDEST PUSH2 0x52 PUSH1 0x4 DUP1 CALLDATASIZE SUB DUP2 ADD SWAP1 PUSH2 0x4D SWAP2 SWAP1 PUSH2 0x21B JUMP JUMPDEST PUSH2 0x84 JUMP JUMPDEST PUSH1 0x40 MLOAD PUSH2 0x5F SWAP2 SWAP1 PUSH2 0x285 JUMP JUMPDEST PUSH1 0x40 MLOAD DUP1 SWAP2 SUB SWAP1 RETURN JUMPDEST PUSH2 0x82 PUSH1 0x4 DUP1 CALLDATASIZE SUB DUP2 ADD SWAP1 PUSH2 0x7D SWAP2 SWAP1 PUSH2 0x3DA JUMP JUMPDEST PUSH2 0xBE JUMP JUMPDEST STOP JUMPDEST PUSH0 DUP2 DUP2 SLOAD DUP2 LT PUSH2 0x92 JUMPI PUSH0 DUP1 REVERT JUMPDEST SWAP1 PUSH0 MSTORE PUSH1 0x20 PUSH0 KECCAK256 ADD PUSH0 SWAP2 POP SLOAD SWAP1 PUSH2 0x100 EXP SWAP1 DIV PUSH20 0xFFFFFFFFFFFFFFFFFFFFFFFFFFFFFFFFFFFFFFFF AND DUP2 JUMP JUMPDEST PUSH0 DUP6 DUP6 DUP5 DUP5 PUSH1 0x40 MLOAD PUSH2 0xCF SWAP1 PUSH2 0x1CA JUMP JUMPDEST PUSH2 0xDC SWAP5 SWAP4 SWAP3 SWAP2 SWAP1 PUSH2 0x530 JUMP JUMPDEST PUSH1 0x40 MLOAD DUP1 SWAP2 SUB SWAP1 PUSH0 CREATE DUP1 ISZERO DUP1 ISZERO PUSH2 0xF5 JUMPI RETURNDATASIZE PUSH0 PUSH0 RETURNDATACOPY RETURNDATASIZE PUSH0 REVERT JUMPDEST POP SWAP1 POP PUSH0 DUP2 SWAP1 DUP1 PUSH1 0x1 DUP2 SLOAD ADD DUP1 DUP3 SSTORE DUP1 SWAP2 POP POP PUSH1 0x1 SWAP1 SUB SWAP1 PUSH0 MSTORE PUSH1 0x20 PUSH0 KECCAK256 ADD PUSH0 SWAP1 SWAP2 SWAP1 SWAP2 SWAP1 SWAP2 PUSH2 0x100 EXP DUP2 SLOAD DUP2 PUSH20 0xFFFFFFFFFFFFFFFFFFFFFFFFFFFFFFFFFFFFFFFF MUL NOT AND SWAP1 DUP4 PUSH20 0xFFFFFFFFFFFFFFFFFFFFFFFFFFFFFFFFFFFFFFFF AND MUL OR SWAP1 SSTORE POP DUP4 PUSH1 0x40 MLOAD PUSH2 0x165 SWAP2 SWAP1 PUSH2 0x5C2 JUMP JUMPDEST PUSH1 0x40 MLOAD DUP1 SWAP2 SUB SWAP1 KECCAK256 TIMESTAMP CALLER PUSH20 0xFFFFFFFFFFFFFFFFFFFFFFFFFFFFFFFFFFFFFFFF AND PUSH32 0x2A15E8182E5AFE1F8145C338707FDE0FD0E872200E52A393F86C1FBA47DB6D37 DUP10 DUP10 DUP8 DUP8 PUSH1 0x40 MLOAD PUSH2 0x1BA SWAP5 SWAP4 SWAP3 SWAP2 SWAP1 PUSH2 0x5D8 JUMP JUMPDEST PUSH1 0x40 MLOAD DUP1 SWAP2 SUB SWAP1 LOG4 POP POP POP POP POP POP JUMP JUMPDEST PUSH2 0xCBC DUP1 PUSH2 0x62A DUP4 CODECOPY ADD SWAP1 JUMP JUMPDEST PUSH0 PUSH1 0x40 MLOAD SWAP1 POP SWAP1 JUMP JUMPDEST PUSH0 PUSH0 REVERT JUMPDEST PUSH0 PUSH0 REVERT JUMPDEST PUSH0 DUP2 SWAP1 POP SWAP2 SWAP1 POP JUMP JUMPDEST PUSH2 0x1FA DUP2 PUSH2 0x1E8 JUMP JUMPDEST DUP2 EQ PUSH2 0x204 JUMPI PUSH0 PUSH0 REVERT JUMPDEST POP JUMP JUMPDEST PUSH0 DUP2 CALLDATALOAD SWAP1 POP PUSH2 0x215 DUP2 PUSH2 0x1F1 JUMP JUMPDEST SWAP3 SWAP2 POP POP JUMP JUMPDEST PUSH0 PUSH1 0x20 DUP3 DUP5 SUB SLT ISZERO PUSH2 0x230 JUMPI PUSH2 0x22F PUSH2 0x1E0 JUMP JUMPDEST JUMPDEST PUSH0 PUSH2 0x23D DUP5 DUP3 DUP6 ADD PUSH2 0x207 JUMP JUMPDEST SWAP2 POP POP SWAP3 SWAP2 POP POP JUMP JUMPDEST PUSH0 PUSH20 0xFFFFFFFFFFFFFFFFFFFFFFFFFFFFFFFFFFFFFFFF DUP3 AND SWAP1 POP SWAP2 SWAP1 POP JUMP JUMPDEST PUSH0 PUSH2 0x26F DUP3 PUSH2 0x246 JUMP JUMPDEST SWAP1 POP SWAP2 SWAP1 POP JUMP JUMPDEST PUSH2 0x27F DUP2 PUSH2 0x265 JUMP JUMPDEST DUP3 MSTORE POP POP JUMP JUMPDEST PUSH0 PUSH1 0x20 DUP3 ADD SWAP1 POP PUSH2 0x298 PUSH0 DUP4 ADD DUP5 PUSH2 0x276 JUMP JUMPDEST SWAP3 SWAP2 POP POP JUMP JUMPDEST PUSH0 PUSH0 REVERT JUMPDEST PUSH0 PUSH0 REVERT JUMPDEST PUSH0 PUSH1 0x1F NOT PUSH1 0x1F DUP4 ADD AND SWAP1 POP SWAP2 SWAP1 POP JUMP JUMPDEST PUSH32 0x4E487B7100000000000000000000000000000000000000000000000000000000 PUSH0 MSTORE PUSH1 0x41 PUSH1 0x4 MSTORE PUSH1 0x24 PUSH0 REVERT JUMPDEST PUSH2 0x2EC DUP3 PUSH2 0x2A6 JUMP JUMPDEST DUP2 ADD DUP2 DUP2 LT PUSH8 0xFFFFFFFFFFFFFFFF DUP3 GT OR ISZERO PUSH2 0x30B JUMPI PUSH2 0x30A PUSH2 0x2B6 JUMP JUMPDEST JUMPDEST DUP1 PUSH1 0x40 MSTORE POP POP POP JUMP JUMPDEST PUSH0 PUSH2 0x31D PUSH2 0x1D7 JUMP JUMPDEST SWAP1 POP PUSH2 0x329 DUP3 DUP3 PUSH2 0x2E3 JUMP JUMPDEST SWAP2 SWAP1 POP JUMP JUMPDEST PUSH0 PUSH8 0xFFFFFFFFFFFFFFFF DUP3 GT ISZERO PUSH2 0x348 JUMPI PUSH2 0x347 PUSH2 0x2B6 JUMP JUMPDEST JUMPDEST PUSH2 0x351 DUP3 PUSH2 0x2A6 JUMP JUMPDEST SWAP1 POP PUSH1 0x20 DUP2 ADD SWAP1 POP SWAP2 SWAP1 POP JUMP JUMPDEST DUP3 DUP2 DUP4 CALLDATACOPY PUSH0 DUP4 DUP4 ADD MSTORE POP POP POP JUMP JUMPDEST PUSH0 PUSH2 0x37E PUSH2 0x379 DUP5 PUSH2 0x32E JUMP JUMPDEST PUSH2 0x314 JUMP JUMPDEST SWAP1 POP DUP3 DUP2 MSTORE PUSH1 0x20 DUP2 ADD DUP5 DUP5 DUP5 ADD GT ISZERO PUSH2 0x39A JUMPI PUSH2 0x399 PUSH2 0x2A2 JUMP JUMPDEST JUMPDEST PUSH2 0x3A5 DUP5 DUP3 DUP6 PUSH2 0x35E JUMP JUMPDEST POP SWAP4 SWAP3 POP POP POP JUMP JUMPDEST PUSH0 DUP3 PUSH1 0x1F DUP4 ADD SLT PUSH2 0x3C1 JUMPI PUSH2 0x3C0 PUSH2 0x29E JUMP JUMPDEST JUMPDEST DUP2 CALLDATALOAD PUSH2 0x3D1 DUP5 DUP3 PUSH1 0x20 DUP7 ADD PUSH2 0x36C JUMP JUMPDEST SWAP2 POP POP SWAP3 SWAP2 POP POP JUMP JUMPDEST PUSH0 PUSH0 PUSH0 PUSH0 PUSH0 PUSH1 0xA0 DUP7 DUP9 SUB SLT ISZERO PUSH2 0x3F3 JUMPI PUSH2 0x3F2 PUSH2 0x1E0 JUMP JUMPDEST JUMPDEST PUSH0 DUP7 ADD CALLDATALOAD PUSH8 0xFFFFFFFFFFFFFFFF DUP2 GT ISZERO PUSH2 0x410 JUMPI PUSH2 0x40F PUSH2 0x1E4 JUMP JUMPDEST JUMPDEST PUSH2 0x41C DUP9 DUP3 DUP10 ADD PUSH2 0x3AD JUMP JUMPDEST SWAP6 POP POP PUSH1 0x20 DUP7 ADD CALLDATALOAD PUSH8 0xFFFFFFFFFFFFFFFF DUP2 GT ISZERO PUSH2 0x43D JUMPI PUSH2 0x43C PUSH2 0x1E4 JUMP JUMPDEST JUMPDEST PUSH2 0x449 DUP9 DUP3 DUP10 ADD PUSH2 0x3AD JUMP JUMPDEST SWAP5 POP POP PUSH1 0x40 DUP7 ADD CALLDATALOAD PUSH8 0xFFFFFFFFFFFFFFFF DUP2 GT ISZERO PUSH2 0x46A JUMPI PUSH2 0x469 PUSH2 0x1E4 JUMP JUMPDEST JUMPDEST PUSH2 0x476 DUP9 DUP3 DUP10 ADD PUSH2 0x3AD JUMP JUMPDEST SWAP4 POP POP PUSH1 0x60 DUP7 ADD CALLDATALOAD PUSH8 0xFFFFFFFFFFFFFFFF DUP2 GT ISZERO PUSH2 0x497 JUMPI PUSH2 0x496 PUSH2 0x1E4 JUMP JUMPDEST JUMPDEST PUSH2 0x4A3 DUP9 DUP3 DUP10 ADD PUSH2 0x3AD JUMP JUMPDEST SWAP3 POP POP PUSH1 0x80 PUSH2 0x4B4 DUP9 DUP3 DUP10 ADD PUSH2 0x207 JUMP JUMPDEST SWAP2 POP POP SWAP3 SWAP6 POP SWAP3 SWAP6 SWAP1 SWAP4 POP JUMP JUMPDEST PUSH0 DUP2 MLOAD SWAP1 POP SWAP2 SWAP1 POP JUMP JUMPDEST PUSH0 DUP3 DUP3 MSTORE PUSH1 0x20 DUP3 ADD SWAP1 POP SWAP3 SWAP2 POP POP JUMP JUMPDEST DUP3 DUP2 DUP4 MCOPY PUSH0 DUP4 DUP4 ADD MSTORE POP POP POP JUMP JUMPDEST PUSH0 PUSH2 0x4F3 DUP3 PUSH2 0x4C1 JUMP JUMPDEST PUSH2 0x4FD DUP2 DUP6 PUSH2 0x4CB JUMP JUMPDEST SWAP4 POP PUSH2 0x50D DUP2 DUP6 PUSH1 0x20 DUP7 ADD PUSH2 0x4DB JUMP JUMPDEST PUSH2 0x516 DUP2 PUSH2 0x2A6 JUMP JUMPDEST DUP5 ADD SWAP2 POP POP SWAP3 SWAP2 POP POP JUMP JUMPDEST PUSH2 0x52A DUP2 PUSH2 0x1E8 JUMP JUMPDEST DUP3 MSTORE POP POP JUMP JUMPDEST PUSH0 PUSH1 0x80 DUP3 ADD SWAP1 POP DUP2 DUP2 SUB PUSH0 DUP4 ADD MSTORE PUSH2 0x548 DUP2 DUP8 PUSH2 0x4E9 JUMP JUMPDEST SWAP1 POP DUP2 DUP2 SUB PUSH1 0x20 DUP4 ADD MSTORE PUSH2 0x55C DUP2 DUP7 PUSH2 0x4E9 JUMP JUMPDEST SWAP1 POP DUP2 DUP2 SUB PUSH1 0x40 DUP4 ADD MSTORE PUSH2 0x570 DUP2 DUP6 PUSH2 0x4E9 JUMP JUMPDEST SWAP1 POP PUSH2 0x57F PUSH1 0x60 DUP4 ADD DUP5 PUSH2 0x521 JUMP JUMPDEST SWAP6 SWAP5 POP POP POP POP POP JUMP JUMPDEST PUSH0 DUP2 SWAP1 POP SWAP3 SWAP2 POP POP JUMP JUMPDEST PUSH0 PUSH2 0x59C DUP3 PUSH2 0x4C1 JUMP JUMPDEST PUSH2 0x5A6 DUP2 DUP6 PUSH2 0x588 JUMP JUMPDEST SWAP4 POP PUSH2 0x5B6 DUP2 DUP6 PUSH1 0x20 DUP7 ADD PUSH2 0x4DB JUMP JUMPDEST DUP1 DUP5 ADD SWAP2 POP POP SWAP3 SWAP2 POP POP JUMP JUMPDEST PUSH0 PUSH2 0x5CD DUP3 DUP5 PUSH2 0x592 JUMP JUMPDEST SWAP2 POP DUP2 SWAP1 POP SWAP3 SWAP2 POP POP JUMP JUMPDEST PUSH0 PUSH1 0x80 DUP3 ADD SWAP1 POP DUP2 DUP2 SUB PUSH0 DUP4 ADD MSTORE PUSH2 0x5F0 DUP2 DUP8 PUSH2 0x4E9 JUMP JUMPDEST SWAP1 POP DUP2 DUP2 SUB PUSH1 0x20 DUP4 ADD MSTORE PUSH2 0x604 DUP2 DUP7 PUSH2 0x4E9 JUMP JUMPDEST SWAP1 POP PUSH2 0x613 PUSH1 0x40 DUP4 ADD DUP6 PUSH2 0x521 JUMP JUMPDEST PUSH2 0x620 PUSH1 0x60 DUP4 ADD DUP5 PUSH2 0x276 JUMP JUMPDEST SWAP6 SWAP5 POP POP POP POP POP JUMP INVALID PUSH1 0x80 PUSH1 0x40 MSTORE CALLVALUE DUP1 ISZERO PUSH2 0xF JUMPI PUSH0 PUSH0 REVERT JUMPDEST POP PUSH1 0x40 MLOAD PUSH2 0xCBC CODESIZE SUB DUP1 PUSH2 0xCBC DUP4 CODECOPY DUP2 DUP2 ADD PUSH1 0x40 MSTORE DUP2 ADD SWAP1 PUSH2 0x31 SWAP2 SWAP1 PUSH2 0x230 JUMP JUMPDEST DUP4 PUSH0 SWAP1 DUP2 PUSH2 0x3F SWAP2 SWAP1 PUSH2 0x4EF JUMP JUMPDEST POP DUP3 PUSH1 0x1 SWAP1 DUP2 PUSH2 0x4F SWAP2 SWAP1 PUSH2 0x4EF JUMP JUMPDEST POP DUP2 PUSH1 0x2 SWAP1 DUP2 PUSH2 0x5F SWAP2 SWAP1 PUSH2 0x4EF JUMP JUMPDEST POP DUP1 PUSH1 0x3 DUP2 SWAP1 SSTORE POP CALLER PUSH1 0x5 PUSH0 PUSH2 0x100 EXP DUP2 SLOAD DUP2 PUSH20 0xFFFFFFFFFFFFFFFFFFFFFFFFFFFFFFFFFFFFFFFF MUL NOT AND SWAP1 DUP4 PUSH20 0xFFFFFFFFFFFFFFFFFFFFFFFFFFFFFFFFFFFFFFFF AND MUL OR SWAP1 SSTORE POP POP POP POP POP PUSH2 0x5BE JUMP JUMPDEST PUSH0 PUSH1 0x40 MLOAD SWAP1 POP SWAP1 JUMP JUMPDEST PUSH0 PUSH0 REVERT JUMPDEST PUSH0 PUSH0 REVERT JUMPDEST PUSH0 PUSH0 REVERT JUMPDEST PUSH0 PUSH0 REVERT JUMPDEST PUSH0 PUSH1 0x1F NOT PUSH1 0x1F DUP4 ADD AND SWAP1 POP SWAP2 SWAP1 POP JUMP JUMPDEST PUSH32 0x4E487B7100000000000000000000000000000000000000000000000000000000 PUSH0 MSTORE PUSH1 0x41 PUSH1 0x4 MSTORE PUSH1 0x24 PUSH0 REVERT JUMPDEST PUSH2 0x10F DUP3 PUSH2 0xC9 JUMP JUMPDEST DUP2 ADD DUP2 DUP2 LT PUSH8 0xFFFFFFFFFFFFFFFF DUP3 GT OR ISZERO PUSH2 0x12E JUMPI PUSH2 0x12D PUSH2 0xD9 JUMP JUMPDEST JUMPDEST DUP1 PUSH1 0x40 MSTORE POP POP POP JUMP JUMPDEST PUSH0 PUSH2 0x140 PUSH2 0xB0 JUMP JUMPDEST SWAP1 POP PUSH2 0x14C DUP3 DUP3 PUSH2 0x106 JUMP JUMPDEST SWAP2 SWAP1 POP JUMP JUMPDEST PUSH0 PUSH8 0xFFFFFFFFFFFFFFFF DUP3 GT ISZERO PUSH2 0x16B JUMPI PUSH2 0x16A PUSH2 0xD9 JUMP JUMPDEST JUMPDEST PUSH2 0x174 DUP3 PUSH2 0xC9 JUMP JUMPDEST SWAP1 POP PUSH1 0x20 DUP2 ADD SWAP1 POP SWAP2 SWAP1 POP JUMP JUMPDEST DUP3 DUP2 DUP4 MCOPY PUSH0 DUP4 DUP4 ADD MSTORE POP POP POP JUMP JUMPDEST PUSH0 PUSH2 0x1A1 PUSH2 0x19C DUP5 PUSH2 0x151 JUMP JUMPDEST PUSH2 0x137 JUMP JUMPDEST SWAP1 POP DUP3 DUP2 MSTORE PUSH1 0x20 DUP2 ADD DUP5 DUP5 DUP5 ADD GT ISZERO PUSH2 0x1BD JUMPI PUSH2 0x1BC PUSH2 0xC5 JUMP JUMPDEST JUMPDEST PUSH2 0x1C8 DUP5 DUP3 DUP6 PUSH2 0x181 JUMP JUMPDEST POP SWAP4 SWAP3 POP POP POP JUMP JUMPDEST PUSH0 DUP3 PUSH1 0x1F DUP4 ADD SLT PUSH2 0x1E4 JUMPI PUSH2 0x1E3 PUSH2 0xC1 JUMP JUMPDEST JUMPDEST DUP2 MLOAD PUSH2 0x1F4 DUP5 DUP3 PUSH1 0x20 DUP7 ADD PUSH2 0x18F JUMP JUMPDEST SWAP2 POP POP SWAP3 SWAP2 POP POP JUMP JUMPDEST PUSH0 DUP2 SWAP1 POP SWAP2 SWAP1 POP JUMP JUMPDEST PUSH2 0x20F DUP2 PUSH2 0x1FD JUMP JUMPDEST DUP2 EQ PUSH2 0x219 JUMPI PUSH0 PUSH0 REVERT JUMPDEST POP JUMP JUMPDEST PUSH0 DUP2 MLOAD SWAP1 POP PUSH2 0x22A DUP2 PUSH2 0x206 JUMP JUMPDEST SWAP3 SWAP2 POP POP JUMP JUMPDEST PUSH0 PUSH0 PUSH0 PUSH0 PUSH1 0x80 DUP6 DUP8 SUB SLT ISZERO PUSH2 0x248 JUMPI PUSH2 0x247 PUSH2 0xB9 JUMP JUMPDEST JUMPDEST PUSH0 DUP6 ADD MLOAD PUSH8 0xFFFFFFFFFFFFFFFF DUP2 GT ISZERO PUSH2 0x265 JUMPI PUSH2 0x264 PUSH2 0xBD JUMP JUMPDEST JUMPDEST PUSH2 0x271 DUP8 DUP3 DUP9 ADD PUSH2 0x1D0 JUMP JUMPDEST SWAP5 POP POP PUSH1 0x20 DUP6 ADD MLOAD PUSH8 0xFFFFFFFFFFFFFFFF DUP2 GT ISZERO PUSH2 0x292 JUMPI PUSH2 0x291 PUSH2 0xBD JUMP JUMPDEST JUMPDEST PUSH2 0x29E DUP8 DUP3 DUP9 ADD PUSH2 0x1D0 JUMP JUMPDEST SWAP4 POP POP PUSH1 0x40 DUP6 ADD MLOAD PUSH8 0xFFFFFFFFFFFFFFFF DUP2 GT ISZERO PUSH2 0x2BF JUMPI PUSH2 0x2BE PUSH2 0xBD JUMP JUMPDEST JUMPDEST PUSH2 0x2CB DUP8 DUP3 DUP9 ADD PUSH2 0x1D0 JUMP JUMPDEST SWAP3 POP POP PUSH1 0x60 PUSH2 0x2DC DUP8 DUP3 DUP9 ADD PUSH2 0x21C JUMP JUMPDEST SWAP2 POP POP SWAP3 SWAP6 SWAP2 SWAP5 POP SWAP3 POP JUMP JUMPDEST PUSH0 DUP2 MLOAD SWAP1 POP SWAP2 SWAP1 POP JUMP JUMPDEST PUSH32 0x4E487B7100000000000000000000000000000000000000000000000000000000 PUSH0 MSTORE PUSH1 0x22 PUSH1 0x4 MSTORE PUSH1 0x24 PUSH0 REVERT JUMPDEST PUSH0 PUSH1 0x2 DUP3 DIV SWAP1 POP PUSH1 0x1 DUP3 AND DUP1 PUSH2 0x336 JUMPI PUSH1 0x7F DUP3 AND SWAP2 POP JUMPDEST PUSH1 0x20 DUP3 LT DUP2 SUB PUSH2 0x349 JUMPI PUSH2 0x348 PUSH2 0x2F2 JUMP JUMPDEST JUMPDEST POP SWAP2 SWAP1 POP JUMP JUMPDEST PUSH0 DUP2 SWAP1 POP DUP2 PUSH0 MSTORE PUSH1 0x20 PUSH0 KECCAK256 SWAP1 POP SWAP2 SWAP1 POP JUMP JUMPDEST PUSH0 PUSH1 0x20 PUSH1 0x1F DUP4 ADD DIV SWAP1 POP SWAP2 SWAP1 POP JUMP JUMPDEST PUSH0 DUP3 DUP3 SHL SWAP1 POP SWAP3 SWAP2 POP POP JUMP JUMPDEST PUSH0 PUSH1 0x8 DUP4 MUL PUSH2 0x3AB PUSH32 0xFFFFFFFFFFFFFFFFFFFFFFFFFFFFFFFFFFFFFFFFFFFFFFFFFFFFFFFFFFFFFFFF DUP3 PUSH2 0x370 JUMP JUMPDEST PUSH2 0x3B5 DUP7 DUP4 PUSH2 0x370 JUMP JUMPDEST SWAP6 POP DUP1 NOT DUP5 AND SWAP4 POP DUP1 DUP7 AND DUP5 OR SWAP3 POP POP POP SWAP4 SWAP3 POP POP POP JUMP JUMPDEST PUSH0 DUP2 SWAP1 POP SWAP2 SWAP1 POP JUMP JUMPDEST PUSH0 PUSH2 0x3F0 PUSH2 0x3EB PUSH2 0x3E6 DUP5 PUSH2 0x1FD JUMP JUMPDEST PUSH2 0x3CD JUMP JUMPDEST PUSH2 0x1FD JUMP JUMPDEST SWAP1 POP SWAP2 SWAP1 POP JUMP JUMPDEST PUSH0 DUP2 SWAP1 POP SWAP2 SWAP1 POP JUMP JUMPDEST PUSH2 0x409 DUP4 PUSH2 0x3D6 JUMP JUMPDEST PUSH2 0x41D PUSH2 0x415 DUP3 PUSH2 0x3F7 JUMP JUMPDEST DUP5 DUP5 SLOAD PUSH2 0x37C JUMP JUMPDEST DUP3 SSTORE POP POP POP POP JUMP JUMPDEST PUSH0 PUSH0 SWAP1 POP SWAP1 JUMP JUMPDEST PUSH2 0x434 PUSH2 0x425 JUMP JUMPDEST PUSH2 0x43F DUP2 DUP5 DUP5 PUSH2 0x400 JUMP JUMPDEST POP POP POP JUMP JUMPDEST JUMPDEST DUP2 DUP2 LT ISZERO PUSH2 0x462 JUMPI PUSH2 0x457 PUSH0 DUP3 PUSH2 0x42C JUMP JUMPDEST PUSH1 0x1 DUP2 ADD SWAP1 POP PUSH2 0x445 JUMP JUMPDEST POP POP JUMP JUMPDEST PUSH1 0x1F DUP3 GT ISZERO PUSH2 0x4A7 JUMPI PUSH2 0x478 DUP2 PUSH2 0x34F JUMP JUMPDEST PUSH2 0x481 DUP5 PUSH2 0x361 JUMP JUMPDEST DUP2 ADD PUSH1 0x20 DUP6 LT ISZERO PUSH2 0x490 JUMPI DUP2 SWAP1 POP JUMPDEST PUSH2 0x4A4 PUSH2 0x49C DUP6 PUSH2 0x361 JUMP JUMPDEST DUP4 ADD DUP3 PUSH2 0x444 JUMP JUMPDEST POP POP JUMPDEST POP POP POP JUMP JUMPDEST PUSH0 DUP3 DUP3 SHR SWAP1 POP SWAP3 SWAP2 POP POP JUMP JUMPDEST PUSH0 PUSH2 0x4C7 PUSH0 NOT DUP5 PUSH1 0x8 MUL PUSH2 0x4AC JUMP JUMPDEST NOT DUP1 DUP4 AND SWAP2 POP POP SWAP3 SWAP2 POP POP JUMP JUMPDEST PUSH0 PUSH2 0x4DF DUP4 DUP4 PUSH2 0x4B8 JUMP JUMPDEST SWAP2 POP DUP3 PUSH1 0x2 MUL DUP3 OR SWAP1 POP SWAP3 SWAP2 POP POP JUMP JUMPDEST PUSH2 0x4F8 DUP3 PUSH2 0x2E8 JUMP JUMPDEST PUSH8 0xFFFFFFFFFFFFFFFF DUP2 GT ISZERO PUSH2 0x511 JUMPI PUSH2 0x510 PUSH2 0xD9 JUMP JUMPDEST JUMPDEST PUSH2 0x51B DUP3 SLOAD PUSH2 0x31F JUMP JUMPDEST PUSH2 0x526 DUP3 DUP3 DUP6 PUSH2 0x466 JUMP JUMPDEST PUSH0 PUSH1 0x20 SWAP1 POP PUSH1 0x1F DUP4 GT PUSH1 0x1 DUP2 EQ PUSH2 0x557 JUMPI PUSH0 DUP5 ISZERO PUSH2 0x545 JUMPI DUP3 DUP8 ADD MLOAD SWAP1 POP JUMPDEST PUSH2 0x54F DUP6 DUP3 PUSH2 0x4D4 JUMP JUMPDEST DUP7 SSTORE POP PUSH2 0x5B6 JUMP JUMPDEST PUSH1 0x1F NOT DUP5 AND PUSH2 0x565 DUP7 PUSH2 0x34F JUMP JUMPDEST PUSH0 JUMPDEST DUP3 DUP2 LT ISZERO PUSH2 0x58C JUMPI DUP5 DUP10 ADD MLOAD DUP3 SSTORE PUSH1 0x1 DUP3 ADD SWAP2 POP PUSH1 0x20 DUP6 ADD SWAP5 POP PUSH1 0x20 DUP2 ADD SWAP1 POP PUSH2 0x567 JUMP JUMPDEST DUP7 DUP4 LT ISZERO PUSH2 0x5A9 JUMPI DUP5 DUP10 ADD MLOAD PUSH2 0x5A5 PUSH1 0x1F DUP10 AND DUP3 PUSH2 0x4B8 JUMP JUMPDEST DUP4 SSTORE POP JUMPDEST PUSH1 0x1 PUSH1 0x2 DUP9 MUL ADD DUP9 SSTORE POP POP POP JUMPDEST POP POP POP POP POP POP JUMP JUMPDEST PUSH2 0x6F1 DUP1 PUSH2 0x5CB PUSH0 CODECOPY PUSH0 RETURN INVALID PUSH1 0x80 PUSH1 0x40 MSTORE PUSH1 0x4 CALLDATASIZE LT PUSH2 0x6F JUMPI PUSH0 CALLDATALOAD PUSH1 0xE0 SHR DUP1 PUSH4 0xB87F0404 GT PUSH2 0x4D JUMPI DUP1 PUSH4 0xB87F0404 EQ PUSH2 0xF1 JUMPI DUP1 PUSH4 0xE5123AAA EQ PUSH2 0x11B JUMPI DUP1 PUSH4 0xED88C68E EQ PUSH2 0x145 JUMPI DUP1 PUSH4 0xFC15DCEF EQ PUSH2 0x14F JUMPI PUSH2 0x6F JUMP JUMPDEST DUP1 PUSH4 0x49721832 EQ PUSH2 0x73 JUMPI DUP1 PUSH4 0x9AA10EBF EQ PUSH2 0x9D JUMPI DUP1 PUSH4 0xB4A99A4E EQ PUSH2 0xC7 JUMPI JUMPDEST PUSH0 PUSH0 REVERT JUMPDEST CALLVALUE DUP1 ISZERO PUSH2 0x7E JUMPI PUSH0 PUSH0 REVERT JUMPDEST POP PUSH2 0x87 PUSH2 0x179 JUMP JUMPDEST PUSH1 0x40 MLOAD PUSH2 0x94 SWAP2 SWAP1 PUSH2 0x46F JUMP JUMPDEST PUSH1 0x40 MLOAD DUP1 SWAP2 SUB SWAP1 RETURN JUMPDEST CALLVALUE DUP1 ISZERO PUSH2 0xA8 JUMPI PUSH0 PUSH0 REVERT JUMPDEST POP PUSH2 0xB1 PUSH2 0x17F JUMP JUMPDEST PUSH1 0x40 MLOAD PUSH2 0xBE SWAP2 SWAP1 PUSH2 0x4F8 JUMP JUMPDEST PUSH1 0x40 MLOAD DUP1 SWAP2 SUB SWAP1 RETURN JUMPDEST CALLVALUE DUP1 ISZERO PUSH2 0xD2 JUMPI PUSH0 PUSH0 REVERT JUMPDEST POP PUSH2 0xDB PUSH2 0x20B JUMP JUMPDEST PUSH1 0x40 MLOAD PUSH2 0xE8 SWAP2 SWAP1 PUSH2 0x557 JUMP JUMPDEST PUSH1 0x40 MLOAD DUP1 SWAP2 SUB SWAP1 RETURN JUMPDEST CALLVALUE DUP1 ISZERO PUSH2 0xFC JUMPI PUSH0 PUSH0 REVERT JUMPDEST POP PUSH2 0x105 PUSH2 0x230 JUMP JUMPDEST PUSH1 0x40 MLOAD PUSH2 0x112 SWAP2 SWAP1 PUSH2 0x4F8 JUMP JUMPDEST PUSH1 0x40 MLOAD DUP1 SWAP2 SUB SWAP1 RETURN JUMPDEST CALLVALUE DUP1 ISZERO PUSH2 0x126 JUMPI PUSH0 PUSH0 REVERT JUMPDEST POP PUSH2 0x12F PUSH2 0x2BB JUMP JUMPDEST PUSH1 0x40 MLOAD PUSH2 0x13C SWAP2 SWAP1 PUSH2 0x4F8 JUMP JUMPDEST PUSH1 0x40 MLOAD DUP1 SWAP2 SUB SWAP1 RETURN JUMPDEST PUSH2 0x14D PUSH2 0x347 JUMP JUMPDEST STOP JUMPDEST CALLVALUE DUP1 ISZERO PUSH2 0x15A JUMPI PUSH0 PUSH0 REVERT JUMPDEST POP PUSH2 0x163 PUSH2 0x451 JUMP JUMPDEST PUSH1 0x40 MLOAD PUSH2 0x170 SWAP2 SWAP1 PUSH2 0x46F JUMP JUMPDEST PUSH1 0x40 MLOAD DUP1 SWAP2 SUB SWAP1 RETURN JUMPDEST PUSH1 0x3 SLOAD DUP2 JUMP JUMPDEST PUSH1 0x2 DUP1 SLOAD PUSH2 0x18C SWAP1 PUSH2 0x59D JUMP JUMPDEST DUP1 PUSH1 0x1F ADD PUSH1 0x20 DUP1 SWAP2 DIV MUL PUSH1 0x20 ADD PUSH1 0x40 MLOAD SWAP1 DUP2 ADD PUSH1 0x40 MSTORE DUP1 SWAP3 SWAP2 SWAP1 DUP2 DUP2 MSTORE PUSH1 0x20 ADD DUP3 DUP1 SLOAD PUSH2 0x1B8 SWAP1 PUSH2 0x59D JUMP JUMPDEST DUP1 ISZERO PUSH2 0x203 JUMPI DUP1 PUSH1 0x1F LT PUSH2 0x1DA JUMPI PUSH2 0x100 DUP1 DUP4 SLOAD DIV MUL DUP4 MSTORE SWAP2 PUSH1 0x20 ADD SWAP2 PUSH2 0x203 JUMP JUMPDEST DUP3 ADD SWAP2 SWAP1 PUSH0 MSTORE PUSH1 0x20 PUSH0 KECCAK256 SWAP1 JUMPDEST DUP2 SLOAD DUP2 MSTORE SWAP1 PUSH1 0x1 ADD SWAP1 PUSH1 0x20 ADD DUP1 DUP4 GT PUSH2 0x1E6 JUMPI DUP3 SWAP1 SUB PUSH1 0x1F AND DUP3 ADD SWAP2 JUMPDEST POP POP POP POP POP DUP2 JUMP JUMPDEST PUSH1 0x5 PUSH0 SWAP1 SLOAD SWAP1 PUSH2 0x100 EXP SWAP1 DIV PUSH20 0xFFFFFFFFFFFFFFFFFFFFFFFFFFFFFFFFFFFFFFFF AND DUP2 JUMP JUMPDEST PUSH0 DUP1 SLOAD PUSH2 0x23C SWAP1 PUSH2 0x59D JUMP JUMPDEST DUP1 PUSH1 0x1F ADD PUSH1 0x20 DUP1 SWAP2 DIV MUL PUSH1 0x20 ADD PUSH1 0x40 MLOAD SWAP1 DUP2 ADD PUSH1 0x40 MSTORE DUP1 SWAP3 SWAP2 SWAP1 DUP2 DUP2 MSTORE PUSH1 0x20 ADD DUP3 DUP1 SLOAD PUSH2 0x268 SWAP1 PUSH2 0x59D JUMP JUMPDEST DUP1 ISZERO PUSH2 0x2B3 JUMPI DUP1 PUSH1 0x1F LT PUSH2 0x28A JUMPI PUSH2 0x100 DUP1 DUP4 SLOAD DIV MUL DUP4 MSTORE SWAP2 PUSH1 0x20 ADD SWAP2 PUSH2 0x2B3 JUMP JUMPDEST DUP3 ADD SWAP2 SWAP1 PUSH0 MSTORE PUSH1 0x20 PUSH0 KECCAK256 SWAP1 JUMPDEST DUP2 SLOAD DUP2 MSTORE SWAP1 PUSH1 0x1 ADD SWAP1 PUSH1 0x20 ADD DUP1 DUP4 GT PUSH2 0x296 JUMPI DUP3 SWAP1 SUB PUSH1 0x1F AND DUP3 ADD SWAP2 JUMPDEST POP POP POP POP POP DUP2 JUMP JUMPDEST PUSH1 0x1 DUP1 SLOAD PUSH2 0x2C8 SWAP1 PUSH2 0x59D JUMP JUMPDEST DUP1 PUSH1 0x1F ADD PUSH1 0x20 DUP1 SWAP2 DIV MUL PUSH1 0x20 ADD PUSH1 0x40 MLOAD SWAP1 DUP2 ADD PUSH1 0x40 MSTORE DUP1 SWAP3 SWAP2 SWAP1 DUP2 DUP2 MSTORE PUSH1 0x20 ADD DUP3 DUP1 SLOAD PUSH2 0x2F4 SWAP1 PUSH2 0x59D JUMP JUMPDEST DUP1 ISZERO PUSH2 0x33F JUMPI DUP1 PUSH1 0x1F LT PUSH2 0x316 JUMPI PUSH2 0x100 DUP1 DUP4 SLOAD DIV MUL DUP4 MSTORE SWAP2 PUSH1 0x20 ADD SWAP2 PUSH2 0x33F JUMP JUMPDEST DUP3 ADD SWAP2 SWAP1 PUSH0 MSTORE PUSH1 0x20 PUSH0 KECCAK256 SWAP1 JUMPDEST DUP2 SLOAD DUP2 MSTORE SWAP1 PUSH1 0x1 ADD SWAP1 PUSH1 0x20 ADD DUP1 DUP4 GT PUSH2 0x322 JUMPI DUP3 SWAP1 SUB PUSH1 0x1F AND DUP3 ADD SWAP2 JUMPDEST POP POP POP POP POP DUP2 JUMP JUMPDEST PUSH1 0x4 SLOAD PUSH1 0x3 SLOAD GT PUSH2 0x38D JUMPI PUSH1 0x40 MLOAD PUSH32 0x8C379A000000000000000000000000000000000000000000000000000000000 DUP2 MSTORE PUSH1 0x4 ADD PUSH2 0x384 SWAP1 PUSH2 0x63D JUMP JUMPDEST PUSH1 0x40 MLOAD DUP1 SWAP2 SUB SWAP1 REVERT JUMPDEST PUSH1 0x5 PUSH0 SWAP1 SLOAD SWAP1 PUSH2 0x100 EXP SWAP1 DIV PUSH20 0xFFFFFFFFFFFFFFFFFFFFFFFFFFFFFFFFFFFFFFFF AND PUSH20 0xFFFFFFFFFFFFFFFFFFFFFFFFFFFFFFFFFFFFFFFF AND PUSH2 0x8FC CALLVALUE SWAP1 DUP2 ISZERO MUL SWAP1 PUSH1 0x40 MLOAD PUSH0 PUSH1 0x40 MLOAD DUP1 DUP4 SUB DUP2 DUP6 DUP9 DUP9 CALL SWAP4 POP POP POP POP ISZERO DUP1 ISZERO PUSH2 0x3F1 JUMPI RETURNDATASIZE PUSH0 PUSH0 RETURNDATACOPY RETURNDATASIZE PUSH0 REVERT JUMPDEST POP CALLVALUE PUSH1 0x4 PUSH0 DUP3 DUP3 SLOAD PUSH2 0x403 SWAP2 SWAP1 PUSH2 0x688 JUMP JUMPDEST SWAP3 POP POP DUP2 SWAP1 SSTORE POP TIMESTAMP CALLVALUE CALLER PUSH20 0xFFFFFFFFFFFFFFFFFFFFFFFFFFFFFFFFFFFFFFFF AND PUSH32 0xE6ADD99D06D9AD7FC456E746AA162EED6211C5002EF2DACDD67B8D2016822FBA PUSH1 0x40 MLOAD PUSH1 0x40 MLOAD DUP1 SWAP2 SUB SWAP1 LOG4 JUMP JUMPDEST PUSH1 0x4 SLOAD DUP2 JUMP JUMPDEST PUSH0 DUP2 SWAP1 POP SWAP2 SWAP1 POP JUMP JUMPDEST PUSH2 0x469 DUP2 PUSH2 0x457 JUMP JUMPDEST DUP3 MSTORE POP POP JUMP JUMPDEST PUSH0 PUSH1 0x20 DUP3 ADD SWAP1 POP PUSH2 0x482 PUSH0 DUP4 ADD DUP5 PUSH2 0x460 JUMP JUMPDEST SWAP3 SWAP2 POP POP JUMP JUMPDEST PUSH0 DUP2 MLOAD SWAP1 POP SWAP2 SWAP1 POP JUMP JUMPDEST PUSH0 DUP3 DUP3 MSTORE PUSH1 0x20 DUP3 ADD SWAP1 POP SWAP3 SWAP2 POP POP JUMP JUMPDEST DUP3 DUP2 DUP4 MCOPY PUSH0 DUP4 DUP4 ADD MSTORE POP POP POP JUMP JUMPDEST PUSH0 PUSH1 0x1F NOT PUSH1 0x1F DUP4 ADD AND SWAP1 POP SWAP2 SWAP1 POP JUMP JUMPDEST PUSH0 PUSH2 0x4CA DUP3 PUSH2 0x488 JUMP JUMPDEST PUSH2 0x4D4 DUP2 DUP6 PUSH2 0x492 JUMP JUMPDEST SWAP4 POP PUSH2 0x4E4 DUP2 DUP6 PUSH1 0x20 DUP7 ADD PUSH2 0x4A2 JUMP JUMPDEST PUSH2 0x4ED DUP2 PUSH2 0x4B0 JUMP JUMPDEST DUP5 ADD SWAP2 POP POP SWAP3 SWAP2 POP POP JUMP JUMPDEST PUSH0 PUSH1 0x20 DUP3 ADD SWAP1 POP DUP2 DUP2 SUB PUSH0 DUP4 ADD MSTORE PUSH2 0x510 DUP2 DUP5 PUSH2 0x4C0 JUMP JUMPDEST SWAP1 POP SWAP3 SWAP2 POP POP JUMP JUMPDEST PUSH0 PUSH20 0xFFFFFFFFFFFFFFFFFFFFFFFFFFFFFFFFFFFFFFFF DUP3 AND SWAP1 POP SWAP2 SWAP1 POP JUMP JUMPDEST PUSH0 PUSH2 0x541 DUP3 PUSH2 0x518 JUMP JUMPDEST SWAP1 POP SWAP2 SWAP1 POP JUMP JUMPDEST PUSH2 0x551 DUP2 PUSH2 0x537 JUMP JUMPDEST DUP3 MSTORE POP POP JUMP JUMPDEST PUSH0 PUSH1 0x20 DUP3 ADD SWAP1 POP PUSH2 0x56A PUSH0 DUP4 ADD DUP5 PUSH2 0x548 JUMP JUMPDEST SWAP3 SWAP2 POP POP JUMP JUMPDEST PUSH32 0x4E487B7100000000000000000000000000000000000000000000000000000000 PUSH0 MSTORE PUSH1 0x22 PUSH1 0x4 MSTORE PUSH1 0x24 PUSH0 REVERT JUMPDEST PUSH0 PUSH1 0x2 DUP3 DIV SWAP1 POP PUSH1 0x1 DUP3 AND DUP1 PUSH2 0x5B4 JUMPI PUSH1 0x7F DUP3 AND SWAP2 POP JUMPDEST PUSH1 0x20 DUP3 LT DUP2 SUB PUSH2 0x5C7 JUMPI PUSH2 0x5C6 PUSH2 0x570 JUMP JUMPDEST JUMPDEST POP SWAP2 SWAP1 POP JUMP JUMPDEST PUSH32 0x726571756972656420616D6F756E742069732066756C6C66696C6C6564202121 PUSH0 DUP3 ADD MSTORE PUSH32 0x2100000000000000000000000000000000000000000000000000000000000000 PUSH1 0x20 DUP3 ADD MSTORE POP JUMP JUMPDEST PUSH0 PUSH2 0x627 PUSH1 0x21 DUP4 PUSH2 0x492 JUMP JUMPDEST SWAP2 POP PUSH2 0x632 DUP3 PUSH2 0x5CD JUMP JUMPDEST PUSH1 0x40 DUP3 ADD SWAP1 POP SWAP2 SWAP1 POP JUMP JUMPDEST PUSH0 PUSH1 0x20 DUP3 ADD SWAP1 POP DUP2 DUP2 SUB PUSH0 DUP4 ADD MSTORE PUSH2 0x654 DUP2 PUSH2 0x61B JUMP JUMPDEST SWAP1 POP SWAP2 SWAP1 POP JUMP JUMPDEST PUSH32 0x4E487B7100000000000000000000000000000000000000000000000000000000 PUSH0 MSTORE PUSH1 0x11 PUSH1 0x4 MSTORE PUSH1 0x24 PUSH0 REVERT JUMPDEST PUSH0 PUSH2 0x692 DUP3 PUSH2 0x457 JUMP JUMPDEST SWAP2 POP PUSH2 0x69D DUP4 PUSH2 0x457 JUMP JUMPDEST SWAP3 POP DUP3 DUP3 ADD SWAP1 POP DUP1 DUP3 GT ISZERO PUSH2 0x6B5 JUMPI PUSH2 0x6B4 PUSH2 0x65B JUMP JUMPDEST JUMPDEST SWAP3 SWAP2 POP POP JUMP INVALID LOG2 PUSH5 0x6970667358 0x22 SLT KECCAK256 LOG2 0xC9 0xB4 EXTCODEHASH 0x2C 0xC8 CALLF 0xFE80 CREATE 0xEA 0xE9 PUSH21 0x596F4F5D2CDBA89596C8188A019EE01525E9F86473 PUSH16 0x6C634300081E0033A264697066735822 SLT KECCAK256 0xF 0xD3 0xDE 0x2E 0xD3 0xF MSTORE EXTCODEHASH PUSH7 0xBD0D4FF2E61DFA EXTCODECOPY 0xDD 0xF 0xC0 0xA6 RJUMP 0x63D2 PUSH24 0x771AF7158BA66C64736F6C634300081E0033000000000000 "
				},
				"gasEstimates": {
					"creation": {
						"codeDepositCost": "978200",
						"executionCost": "1012",
						"totalCost": "979212"
					},
					"external": {
						"createCampagin(string,string,string,string,uint256)": "infinite",
						"deployed(uint256)": "4921"
					}
				},
				"methodIdentifiers": {
					"createCampagin(string,string,string,string,uint256)": "468f4f89",
					"deployed(uint256)": "15b40ec0"
				}
			},
			"storageLayout": {
				"storage": [
					{
						"astId": 20,
						"contract": "campain.sol:deployedCampagin",
						"label": "deployed",
						"offset": 0,
						"slot": "0",
						"type": "t_array(t_address)dyn_storage"
					}
				],
				"types": {
					"t_address": {
						"encoding": "inplace",
						"label": "address",
						"numberOfBytes": "20"
					},
					"t_array(t_address)dyn_storage": {
						"base": "t_address",
						"encoding": "dynamic_array",
						"label": "address[]",
						"numberOfBytes": "32"
					}
				}
			},
			"userdoc": {
				"kind": "user",
				"methods": {},
				"version": 1
			}
		}
	}
}