{
	"data": {
		"bytecode": {
			"linkReferences": {},
			"object": "6080604052348015600e575f5ffd5b506103b58061001c5f395ff3fe608060405234801561000f575f5ffd5b5060043610610034575f3560e01c806315b40ec0146100385780637a49fa2314610068575b5f5ffd5b610052600480360381019061004d9190610108565b610084565b60405161005f9190610172565b60405180910390f35b610082600480360381019061007d91906102c7565b6100be565b005b5f8181548110610092575f80fd5b905f5260205f20015f915054906101000a900473ffffffffffffffffffffffffffffffffffffffff1681565b50505050565b5f604051905090565b5f5ffd5b5f5ffd5b5f819050919050565b6100e7816100d5565b81146100f1575f5ffd5b50565b5f81359050610102816100de565b92915050565b5f6020828403121561011d5761011c6100cd565b5b5f61012a848285016100f4565b91505092915050565b5f73ffffffffffffffffffffffffffffffffffffffff82169050919050565b5f61015c82610133565b9050919050565b61016c81610152565b82525050565b5f6020820190506101855f830184610163565b92915050565b5f5ffd5b5f5ffd5b5f601f19601f8301169050919050565b7f4e487b71000000000000000000000000000000000000000000000000000000005f52604160045260245ffd5b6101d982610193565b810181811067ffffffffffffffff821117156101f8576101f76101a3565b5b80604052505050565b5f61020a6100c4565b905061021682826101d0565b919050565b5f67ffffffffffffffff821115610235576102346101a3565b5b61023e82610193565b9050602081019050919050565b828183375f83830152505050565b5f61026b6102668461021b565b610201565b9050828152602081018484840111156102875761028661018f565b5b61029284828561024b565b509392505050565b5f82601f8301126102ae576102ad61018b565b5b81356102be848260208601610259565b91505092915050565b5f5f5f5f608085870312156102df576102de6100cd565b5b5f85013567ffffffffffffffff8111156102fc576102fb6100d1565b5b6103088782880161029a565b945050602085013567ffffffffffffffff811115610329576103286100d1565b5b6103358782880161029a565b935050604085013567ffffffffffffffff811115610356576103556100d1565b5b6103628782880161029a565b9250506060610373878288016100f4565b9150509295919450925056fea26469706673582212204f2d77b19b7d731addf71723c0d09066ba3445c6cc2fbad708a3dc1ded7d8efa64736f6c634300081e0033",
			"opcodes": "PUSH1 0x80 PUSH1 0x40 MSTORE CALLVALUE DUP1 ISZERO PUSH1 0xE JUMPI PUSH0 PUSH0 REVERT JUMPDEST POP PUSH2 0x3B5 DUP1 PUSH2 0x1C PUSH0 CODECOPY PUSH0 RETURN INVALID PUSH1 0x80 PUSH1 0x40 MSTORE CALLVALUE DUP1 ISZERO PUSH2 0xF JUMPI PUSH0 PUSH0 REVERT JUMPDEST POP PUSH1 0x4 CALLDATASIZE LT PUSH2 0x34 JUMPI PUSH0 CALLDATALOAD PUSH1 0xE0 SHR DUP1 PUSH4 0x15B40EC0 EQ PUSH2 0x38 JUMPI DUP1 PUSH4 0x7A49FA23 EQ PUSH2 0x68 JUMPI JUMPDEST PUSH0 PUSH0 REVERT JUMPDEST PUSH2 0x52 PUSH1 0x4 DUP1 CALLDATASIZE SUB DUP2 ADD SWAP1 PUSH2 0x4D SWAP2 SWAP1 PUSH2 0x108 JUMP JUMPDEST PUSH2 0x84 JUMP JUMPDEST PUSH1 0x40 MLOAD PUSH2 0x5F SWAP2 SWAP1 PUSH2 0x172 JUMP JUMPDEST PUSH1 0x40 MLOAD DUP1 SWAP2 SUB SWAP1 RETURN JUMPDEST PUSH2 0x82 PUSH1 0x4 DUP1 CALLDATASIZE SUB DUP2 ADD SWAP1 PUSH2 0x7D SWAP2 SWAP1 PUSH2 0x2C7 JUMP JUMPDEST PUSH2 0xBE JUMP JUMPDEST STOP JUMPDEST PUSH0 DUP2 DUP2 SLOAD DUP2 LT PUSH2 0x92 JUMPI PUSH0 DUP1 REVERT JUMPDEST SWAP1 PUSH0 MSTORE PUSH1 0x20 PUSH0 KECCAK256 ADD PUSH0 SWAP2 POP SLOAD SWAP1 PUSH2 0x100 EXP SWAP1 DIV PUSH20 0xFFFFFFFFFFFFFFFFFFFFFFFFFFFFFFFFFFFFFFFF AND DUP2 JUMP JUMPDEST POP POP POP POP JUMP JUMPDEST PUSH0 PUSH1 0x40 MLOAD SWAP1 POP SWAP1 JUMP JUMPDEST PUSH0 PUSH0 REVERT JUMPDEST PUSH0 PUSH0 REVERT JUMPDEST PUSH0 DUP2 SWAP1 POP SWAP2 SWAP1 POP JUMP JUMPDEST PUSH2 0xE7 DUP2 PUSH2 0xD5 JUMP JUMPDEST DUP2 EQ PUSH2 0xF1 JUMPI PUSH0 PUSH0 REVERT JUMPDEST POP JUMP JUMPDEST PUSH0 DUP2 CALLDATALOAD SWAP1 POP PUSH2 0x102 DUP2 PUSH2 0xDE JUMP JUMPDEST SWAP3 SWAP2 POP POP JUMP JUMPDEST PUSH0 PUSH1 0x20 DUP3 DUP5 SUB SLT ISZERO PUSH2 0x11D JUMPI PUSH2 0x11C PUSH2 0xCD JUMP JUMPDEST JUMPDEST PUSH0 PUSH2 0x12A DUP5 DUP3 DUP6 ADD PUSH2 0xF4 JUMP JUMPDEST SWAP2 POP POP SWAP3 SWAP2 POP POP JUMP JUMPDEST PUSH0 PUSH20 0xFFFFFFFFFFFFFFFFFFFFFFFFFFFFFFFFFFFFFFFF DUP3 AND SWAP1 POP SWAP2 SWAP1 POP JUMP JUMPDEST PUSH0 PUSH2 0x15C DUP3 PUSH2 0x133 JUMP JUMPDEST SWAP1 POP SWAP2 SWAP1 POP JUMP JUMPDEST PUSH2 0x16C DUP2 PUSH2 0x152 JUMP JUMPDEST DUP3 MSTORE POP POP JUMP JUMPDEST PUSH0 PUSH1 0x20 DUP3 ADD SWAP1 POP PUSH2 0x185 PUSH0 DUP4 ADD DUP5 PUSH2 0x163 JUMP JUMPDEST SWAP3 SWAP2 POP POP JUMP JUMPDEST PUSH0 PUSH0 REVERT JUMPDEST PUSH0 PUSH0 REVERT JUMPDEST PUSH0 PUSH1 0x1F NOT PUSH1 0x1F DUP4 ADD AND SWAP1 POP SWAP2 SWAP1 POP JUMP JUMPDEST PUSH32 0x4E487B7100000000000000000000000000000000000000000000000000000000 PUSH0 MSTORE PUSH1 0x41 PUSH1 0x4 MSTORE PUSH1 0x24 PUSH0 REVERT JUMPDEST PUSH2 0x1D9 DUP3 PUSH2 0x193 JUMP JUMPDEST DUP2 ADD DUP2 DUP2 LT PUSH8 0xFFFFFFFFFFFFFFFF DUP3 GT OR ISZERO PUSH2 0x1F8 JUMPI PUSH2 0x1F7 PUSH2 0x1A3 JUMP JUMPDEST JUMPDEST DUP1 PUSH1 0x40 MSTORE POP POP POP JUMP JUMPDEST PUSH0 PUSH2 0x20A PUSH2 0xC4 JUMP JUMPDEST SWAP1 POP PUSH2 0x216 DUP3 DUP3 PUSH2 0x1D0 JUMP JUMPDEST SWAP2 SWAP1 POP JUMP JUMPDEST PUSH0 PUSH8 0xFFFFFFFFFFFFFFFF DUP3 GT ISZERO PUSH2 0x235 JUMPI PUSH2 0x234 PUSH2 0x1A3 JUMP JUMPDEST JUMPDEST PUSH2 0x23E DUP3 PUSH2 0x193 JUMP JUMPDEST SWAP1 POP PUSH1 0x20 DUP2 ADD SWAP1 POP SWAP2 SWAP1 POP JUMP JUMPDEST DUP3 DUP2 DUP4 CALLDATACOPY PUSH0 DUP4 DUP4 ADD MSTORE POP POP POP JUMP JUMPDEST PUSH0 PUSH2 0x26B PUSH2 0x266 DUP5 PUSH2 0x21B JUMP JUMPDEST PUSH2 0x201 JUMP JUMPDEST SWAP1 POP DUP3 DUP2 MSTORE PUSH1 0x20 DUP2 ADD DUP5 DUP5 DUP5 ADD GT ISZERO PUSH2 0x287 JUMPI PUSH2 0x286 PUSH2 0x18F JUMP JUMPDEST JUMPDEST PUSH2 0x292 DUP5 DUP3 DUP6 PUSH2 0x24B JUMP JUMPDEST POP SWAP4 SWAP3 POP POP POP JUMP JUMPDEST PUSH0 DUP3 PUSH1 0x1F DUP4 ADD SLT PUSH2 0x2AE JUMPI PUSH2 0x2AD PUSH2 0x18B JUMP JUMPDEST JUMPDEST DUP2 CALLDATALOAD PUSH2 0x2BE DUP5 DUP3 PUSH1 0x20 DUP7 ADD PUSH2 0x259 JUMP JUMPDEST SWAP2 POP POP SWAP3 SWAP2 POP POP JUMP JUMPDEST PUSH0 PUSH0 PUSH0 PUSH0 PUSH1 0x80 DUP6 DUP8 SUB SLT ISZERO PUSH2 0x2DF JUMPI PUSH2 0x2DE PUSH2 0xCD JUMP JUMPDEST JUMPDEST PUSH0 DUP6 ADD CALLDATALOAD PUSH8 0xFFFFFFFFFFFFFFFF DUP2 GT ISZERO PUSH2 0x2FC JUMPI PUSH2 0x2FB PUSH2 0xD1 JUMP JUMPDEST JUMPDEST PUSH2 0x308 DUP8 DUP3 DUP9 ADD PUSH2 0x29A JUMP JUMPDEST SWAP5 POP POP PUSH1 0x20 DUP6 ADD CALLDATALOAD PUSH8 0xFFFFFFFFFFFFFFFF DUP2 GT ISZERO PUSH2 0x329 JUMPI PUSH2 0x328 PUSH2 0xD1 JUMP JUMPDEST JUMPDEST PUSH2 0x335 DUP8 DUP3 DUP9 ADD PUSH2 0x29A JUMP JUMPDEST SWAP4 POP POP PUSH1 0x40 DUP6 ADD CALLDATALOAD PUSH8 0xFFFFFFFFFFFFFFFF DUP2 GT ISZERO PUSH2 0x356 JUMPI PUSH2 0x355 PUSH2 0xD1 JUMP JUMPDEST JUMPDEST PUSH2 0x362 DUP8 DUP3 DUP9 ADD PUSH2 0x29A JUMP JUMPDEST SWAP3 POP POP PUSH1 0x60 PUSH2 0x373 DUP8 DUP3 DUP9 ADD PUSH2 0xF4 JUMP JUMPDEST SWAP2 POP POP SWAP3 SWAP6 SWAP2 SWAP5 POP SWAP3 POP JUMP INVALID LOG2 PUSH5 0x6970667358 0x22 SLT KECCAK256 0x4F 0x2D PUSH24 0xB19B7D731ADDF71723C0D09066BA3445C6CC2FBAD708A3DC SAR 0xED PUSH30 0x8EFA64736F6C634300081E00330000000000000000000000000000000000 "
		},
		"gasEstimates": {
			"creation": {
				"codeDepositCost": "189800",
				"executionCost": "230",
				"totalCost": "190030"
			},
			"external": {
				"createCampain(string,string,string,uint256)": "infinite",
				"deployed(uint256)": "4921"
			}
		},
		"methodIdentifiers": {
			"createCampain(string,string,string,uint256)": "7a49fa23",
			"deployed(uint256)": "15b40ec0"
		}
	},
	"abi": [
		{
			"inputs": [
				{
					"internalType": "string",
					"name": "campTitile",
					"type": "string"
				},
				{
					"internalType": "string",
					"name": "campImage",
					"type": "string"
				},
				{
					"internalType": "string",
					"name": "campStory",
					"type": "string"
				},
				{
					"internalType": "uint256",
					"name": "campReqAmout",
					"type": "uint256"
				}
			],
			"name": "createCampain",
			"outputs": [],
			"stateMutability": "nonpayable",
			"type": "function"
		},
		{
			"inputs": [
				{
					"internalType": "uint256",
					"name": "",
					"type": "uint256"
				}
			],
			"name": "deployed",
			"outputs": [
				{
					"internalType": "address",
					"name": "",
					"type": "address"
				}
			],
			"stateMutability": "view",
			"type": "function"
		}
	]
}